{
	"contracts/DeFiLending.sol": {
		"DeFiLending": {
			"abi": [
				{
					"inputs": [
						{
							"internalType": "uint256",
							"name": "_interestRate",
							"type": "uint256"
						}
					],
					"stateMutability": "nonpayable",
					"type": "constructor"
				},
				{
					"anonymous": false,
					"inputs": [
						{
							"indexed": true,
							"internalType": "address",
							"name": "user",
							"type": "address"
						},
						{
							"indexed": false,
							"internalType": "uint256",
							"name": "amount",
							"type": "uint256"
						}
					],
					"name": "Deposit",
					"type": "event"
				},
				{
					"anonymous": false,
					"inputs": [
						{
							"indexed": true,
							"internalType": "address",
							"name": "user",
							"type": "address"
						},
						{
							"indexed": false,
							"internalType": "uint256",
							"name": "amount",
							"type": "uint256"
						}
					],
					"name": "Loan",
					"type": "event"
				},
				{
					"anonymous": false,
					"inputs": [
						{
							"indexed": true,
							"internalType": "address",
							"name": "user",
							"type": "address"
						},
						{
							"indexed": false,
							"internalType": "uint256",
							"name": "amount",
							"type": "uint256"
						}
					],
					"name": "Repay",
					"type": "event"
				},
				{
					"anonymous": false,
					"inputs": [
						{
							"indexed": true,
							"internalType": "address",
							"name": "user",
							"type": "address"
						},
						{
							"indexed": false,
							"internalType": "uint256",
							"name": "amount",
							"type": "uint256"
						}
					],
					"name": "Withdraw",
					"type": "event"
				},
				{
					"inputs": [
						{
							"internalType": "uint256",
							"name": "_amount",
							"type": "uint256"
						}
					],
					"name": "borrow",
					"outputs": [],
					"stateMutability": "nonpayable",
					"type": "function"
				},
				{
					"inputs": [
						{
							"internalType": "uint256",
							"name": "_amount",
							"type": "uint256"
						}
					],
					"name": "calculateInterest",
					"outputs": [
						{
							"internalType": "uint256",
							"name": "",
							"type": "uint256"
						}
					],
					"stateMutability": "view",
					"type": "function"
				},
				{
					"inputs": [],
					"name": "deposit",
					"outputs": [],
					"stateMutability": "payable",
					"type": "function"
				},
				{
					"inputs": [
						{
							"internalType": "address",
							"name": "",
							"type": "address"
						}
					],
					"name": "deposits",
					"outputs": [
						{
							"internalType": "uint256",
							"name": "",
							"type": "uint256"
						}
					],
					"stateMutability": "view",
					"type": "function"
				},
				{
					"inputs": [],
					"name": "interestRate",
					"outputs": [
						{
							"internalType": "uint256",
							"name": "",
							"type": "uint256"
						}
					],
					"stateMutability": "view",
					"type": "function"
				},
				{
					"inputs": [
						{
							"internalType": "address",
							"name": "",
							"type": "address"
						}
					],
					"name": "loans",
					"outputs": [
						{
							"internalType": "uint256",
							"name": "",
							"type": "uint256"
						}
					],
					"stateMutability": "view",
					"type": "function"
				},
				{
					"inputs": [],
					"name": "repay",
					"outputs": [],
					"stateMutability": "payable",
					"type": "function"
				},
				{
					"inputs": [],
					"name": "totalDeposits",
					"outputs": [
						{
							"internalType": "uint256",
							"name": "",
							"type": "uint256"
						}
					],
					"stateMutability": "view",
					"type": "function"
				},
				{
					"inputs": [],
					"name": "totalLoans",
					"outputs": [
						{
							"internalType": "uint256",
							"name": "",
							"type": "uint256"
						}
					],
					"stateMutability": "view",
					"type": "function"
				},
				{
					"inputs": [
						{
							"internalType": "uint256",
							"name": "_amount",
							"type": "uint256"
						}
					],
					"name": "withdraw",
					"outputs": [],
					"stateMutability": "nonpayable",
					"type": "function"
				}
			],
			"devdoc": {
				"kind": "dev",
				"methods": {},
				"version": 1
			},
			"evm": {
				"assembly": "    /* \"contracts/DeFiLending.sol\":60:2119  contract DeFiLending {... */\n  mstore(0x40, 0x80)\n    /* \"contracts/DeFiLending.sol\":582:664  constructor(uint256 _interestRate) {... */\n  callvalue\n  dup1\n  iszero\n  tag_1\n  jumpi\n  0x00\n  dup1\n  revert\ntag_1:\n  pop\n  mload(0x40)\n  sub(codesize, bytecodeSize)\n  dup1\n  bytecodeSize\n  dup4\n  codecopy\n  dup2\n  dup2\n  add\n  0x40\n  mstore\n  dup2\n  add\n  swap1\n  tag_2\n  swap2\n  swap1\n  tag_3\n  jump\t// in\ntag_2:\n    /* \"contracts/DeFiLending.sol\":643:656  _interestRate */\n  dup1\n    /* \"contracts/DeFiLending.sol\":628:640  interestRate */\n  0x04\n    /* \"contracts/DeFiLending.sol\":628:656  interestRate = _interestRate */\n  dup2\n  swap1\n  sstore\n  pop\n    /* \"contracts/DeFiLending.sol\":582:664  constructor(uint256 _interestRate) {... */\n  pop\n    /* \"contracts/DeFiLending.sol\":60:2119  contract DeFiLending {... */\n  jump(tag_6)\n    /* \"#utility.yul\":88:205   */\ntag_8:\n    /* \"#utility.yul\":197:198   */\n  0x00\n    /* \"#utility.yul\":194:195   */\n  dup1\n    /* \"#utility.yul\":187:199   */\n  revert\n    /* \"#utility.yul\":334:411   */\ntag_10:\n    /* \"#utility.yul\":371:378   */\n  0x00\n    /* \"#utility.yul\":400:405   */\n  dup2\n    /* \"#utility.yul\":389:405   */\n  swap1\n  pop\n    /* \"#utility.yul\":334:411   */\n  swap2\n  swap1\n  pop\n  jump\t// out\n    /* \"#utility.yul\":417:539   */\ntag_11:\n    /* \"#utility.yul\":490:514   */\n  tag_19\n    /* \"#utility.yul\":508:513   */\n  dup2\n    /* \"#utility.yul\":490:514   */\n  tag_10\n  jump\t// in\ntag_19:\n    /* \"#utility.yul\":483:488   */\n  dup2\n    /* \"#utility.yul\":480:515   */\n  eq\n    /* \"#utility.yul\":470:533   */\n  tag_20\n  jumpi\n    /* \"#utility.yul\":529:530   */\n  0x00\n    /* \"#utility.yul\":526:527   */\n  dup1\n    /* \"#utility.yul\":519:531   */\n  revert\n    /* \"#utility.yul\":470:533   */\ntag_20:\n    /* \"#utility.yul\":417:539   */\n  pop\n  jump\t// out\n    /* \"#utility.yul\":545:688   */\ntag_12:\n    /* \"#utility.yul\":602:607   */\n  0x00\n    /* \"#utility.yul\":633:639   */\n  dup2\n    /* \"#utility.yul\":627:640   */\n  mload\n    /* \"#utility.yul\":618:640   */\n  swap1\n  pop\n    /* \"#utility.yul\":649:682   */\n  tag_22\n    /* \"#utility.yul\":676:681   */\n  dup2\n    /* \"#utility.yul\":649:682   */\n  tag_11\n  jump\t// in\ntag_22:\n    /* \"#utility.yul\":545:688   */\n  swap3\n  swap2\n  pop\n  pop\n  jump\t// out\n    /* \"#utility.yul\":694:1045   */\ntag_3:\n    /* \"#utility.yul\":764:770   */\n  0x00\n    /* \"#utility.yul\":813:815   */\n  0x20\n    /* \"#utility.yul\":801:810   */\n  dup3\n    /* \"#utility.yul\":792:799   */\n  dup5\n    /* \"#utility.yul\":788:811   */\n  sub\n    /* \"#utility.yul\":784:816   */\n  slt\n    /* \"#utility.yul\":781:900   */\n  iszero\n  tag_24\n  jumpi\n    /* \"#utility.yul\":819:898   */\n  tag_25\n  tag_8\n  jump\t// in\ntag_25:\n    /* \"#utility.yul\":781:900   */\ntag_24:\n    /* \"#utility.yul\":939:940   */\n  0x00\n    /* \"#utility.yul\":964:1028   */\n  tag_26\n    /* \"#utility.yul\":1020:1027   */\n  dup5\n    /* \"#utility.yul\":1011:1017   */\n  dup3\n    /* \"#utility.yul\":1000:1009   */\n  dup6\n    /* \"#utility.yul\":996:1018   */\n  add\n    /* \"#utility.yul\":964:1028   */\n  tag_12\n  jump\t// in\ntag_26:\n    /* \"#utility.yul\":954:1028   */\n  swap2\n  pop\n    /* \"#utility.yul\":910:1038   */\n  pop\n    /* \"#utility.yul\":694:1045   */\n  swap3\n  swap2\n  pop\n  pop\n  jump\t// out\n    /* \"contracts/DeFiLending.sol\":60:2119  contract DeFiLending {... */\ntag_6:\n  dataSize(sub_0)\n  dup1\n  dataOffset(sub_0)\n  0x00\n  codecopy\n  0x00\n  return\nstop\n\nsub_0: assembly {\n        /* \"contracts/DeFiLending.sol\":60:2119  contract DeFiLending {... */\n      mstore(0x40, 0x80)\n      jumpi(tag_1, lt(calldatasize, 0x04))\n      shr(0xe0, calldataload(0x00))\n      dup1\n      0xa57475e0\n      gt\n      tag_12\n      jumpi\n      dup1\n      0xa57475e0\n      eq\n      tag_7\n      jumpi\n      dup1\n      0xc5ebeaec\n      eq\n      tag_8\n      jumpi\n      dup1\n      0xcc952b57\n      eq\n      tag_9\n      jumpi\n      dup1\n      0xd0e30db0\n      eq\n      tag_10\n      jumpi\n      dup1\n      0xfc7e286d\n      eq\n      tag_11\n      jumpi\n      jump(tag_1)\n    tag_12:\n      dup1\n      0x2e1a7d4d\n      eq\n      tag_2\n      jumpi\n      dup1\n      0x402d8883\n      eq\n      tag_3\n      jumpi\n      dup1\n      0x73b4086b\n      eq\n      tag_4\n      jumpi\n      dup1\n      0x7c3a00fd\n      eq\n      tag_5\n      jumpi\n      dup1\n      0x7d882097\n      eq\n      tag_6\n      jumpi\n    tag_1:\n      0x00\n      dup1\n      revert\n        /* \"contracts/DeFiLending.sol\":928:1225  function withdraw(uint256 _amount) external {... */\n    tag_2:\n      callvalue\n      dup1\n      iszero\n      tag_13\n      jumpi\n      0x00\n      dup1\n      revert\n    tag_13:\n      pop\n      tag_14\n      0x04\n      dup1\n      calldatasize\n      sub\n      dup2\n      add\n      swap1\n      tag_15\n      swap2\n      swap1\n      tag_16\n      jump\t// in\n    tag_15:\n      tag_17\n      jump\t// in\n    tag_14:\n      stop\n        /* \"contracts/DeFiLending.sol\":1534:1976  function repay() external payable {... */\n    tag_3:\n      tag_18\n      tag_19\n      jump\t// in\n    tag_18:\n      stop\n        /* \"contracts/DeFiLending.sol\":138:178  mapping(address => uint256) public loans */\n    tag_4:\n      callvalue\n      dup1\n      iszero\n      tag_20\n      jumpi\n      0x00\n      dup1\n      revert\n    tag_20:\n      pop\n      tag_21\n      0x04\n      dup1\n      calldatasize\n      sub\n      dup2\n      add\n      swap1\n      tag_22\n      swap2\n      swap1\n      tag_23\n      jump\t// in\n    tag_22:\n      tag_24\n      jump\t// in\n    tag_21:\n      mload(0x40)\n      tag_25\n      swap2\n      swap1\n      tag_26\n      jump\t// in\n    tag_25:\n      mload(0x40)\n      dup1\n      swap2\n      sub\n      swap1\n      return\n        /* \"contracts/DeFiLending.sol\":252:279  uint256 public interestRate */\n    tag_5:\n      callvalue\n      dup1\n      iszero\n      tag_27\n      jumpi\n      0x00\n      dup1\n      revert\n    tag_27:\n      pop\n      tag_28\n      tag_29\n      jump\t// in\n    tag_28:\n      mload(0x40)\n      tag_30\n      swap2\n      swap1\n      tag_26\n      jump\t// in\n    tag_30:\n      mload(0x40)\n      dup1\n      swap2\n      sub\n      swap1\n      return\n        /* \"contracts/DeFiLending.sol\":185:213  uint256 public totalDeposits */\n    tag_6:\n      callvalue\n      dup1\n      iszero\n      tag_31\n      jumpi\n      0x00\n      dup1\n      revert\n    tag_31:\n      pop\n      tag_32\n      tag_33\n      jump\t// in\n    tag_32:\n      mload(0x40)\n      tag_34\n      swap2\n      swap1\n      tag_26\n      jump\t// in\n    tag_34:\n      mload(0x40)\n      dup1\n      swap2\n      sub\n      swap1\n      return\n        /* \"contracts/DeFiLending.sol\":1984:2116  function calculateInterest(uint256 _amount) public view returns (uint256) {... */\n    tag_7:\n      callvalue\n      dup1\n      iszero\n      tag_35\n      jumpi\n      0x00\n      dup1\n      revert\n    tag_35:\n      pop\n      tag_36\n      0x04\n      dup1\n      calldatasize\n      sub\n      dup2\n      add\n      swap1\n      tag_37\n      swap2\n      swap1\n      tag_16\n      jump\t// in\n    tag_37:\n      tag_38\n      jump\t// in\n    tag_36:\n      mload(0x40)\n      tag_39\n      swap2\n      swap1\n      tag_26\n      jump\t// in\n    tag_39:\n      mload(0x40)\n      dup1\n      swap2\n      sub\n      swap1\n      return\n        /* \"contracts/DeFiLending.sol\":1233:1526  function borrow(uint256 _amount) external {... */\n    tag_8:\n      callvalue\n      dup1\n      iszero\n      tag_40\n      jumpi\n      0x00\n      dup1\n      revert\n    tag_40:\n      pop\n      tag_41\n      0x04\n      dup1\n      calldatasize\n      sub\n      dup2\n      add\n      swap1\n      tag_42\n      swap2\n      swap1\n      tag_16\n      jump\t// in\n    tag_42:\n      tag_43\n      jump\t// in\n    tag_41:\n      stop\n        /* \"contracts/DeFiLending.sol\":220:245  uint256 public totalLoans */\n    tag_9:\n      callvalue\n      dup1\n      iszero\n      tag_44\n      jumpi\n      0x00\n      dup1\n      revert\n    tag_44:\n      pop\n      tag_45\n      tag_46\n      jump\t// in\n    tag_45:\n      mload(0x40)\n      tag_47\n      swap2\n      swap1\n      tag_26\n      jump\t// in\n    tag_47:\n      mload(0x40)\n      dup1\n      swap2\n      sub\n      swap1\n      return\n        /* \"contracts/DeFiLending.sol\":672:920  function deposit() external payable {... */\n    tag_10:\n      tag_48\n      tag_49\n      jump\t// in\n    tag_48:\n      stop\n        /* \"contracts/DeFiLending.sol\":88:131  mapping(address => uint256) public deposits */\n    tag_11:\n      callvalue\n      dup1\n      iszero\n      tag_50\n      jumpi\n      0x00\n      dup1\n      revert\n    tag_50:\n      pop\n      tag_51\n      0x04\n      dup1\n      calldatasize\n      sub\n      dup2\n      add\n      swap1\n      tag_52\n      swap2\n      swap1\n      tag_23\n      jump\t// in\n    tag_52:\n      tag_53\n      jump\t// in\n    tag_51:\n      mload(0x40)\n      tag_54\n      swap2\n      swap1\n      tag_26\n      jump\t// in\n    tag_54:\n      mload(0x40)\n      dup1\n      swap2\n      sub\n      swap1\n      return\n        /* \"contracts/DeFiLending.sol\":928:1225  function withdraw(uint256 _amount) external {... */\n    tag_17:\n        /* \"contracts/DeFiLending.sol\":1015:1022  _amount */\n      dup1\n        /* \"contracts/DeFiLending.sol\":991:999  deposits */\n      0x00\n        /* \"contracts/DeFiLending.sol\":991:1011  deposits[msg.sender] */\n      dup1\n        /* \"contracts/DeFiLending.sol\":1000:1010  msg.sender */\n      caller\n        /* \"contracts/DeFiLending.sol\":991:1011  deposits[msg.sender] */\n      0xffffffffffffffffffffffffffffffffffffffff\n      and\n      0xffffffffffffffffffffffffffffffffffffffff\n      and\n      dup2\n      mstore\n      0x20\n      add\n      swap1\n      dup2\n      mstore\n      0x20\n      add\n      0x00\n      keccak256\n      sload\n        /* \"contracts/DeFiLending.sol\":991:1022  deposits[msg.sender] >= _amount */\n      lt\n      iszero\n        /* \"contracts/DeFiLending.sol\":983:1047  require(deposits[msg.sender] >= _amount, \"Insufficient balance\") */\n      tag_56\n      jumpi\n      mload(0x40)\n      0x08c379a000000000000000000000000000000000000000000000000000000000\n      dup2\n      mstore\n      0x04\n      add\n      tag_57\n      swap1\n      tag_58\n      jump\t// in\n    tag_57:\n      mload(0x40)\n      dup1\n      swap2\n      sub\n      swap1\n      revert\n    tag_56:\n        /* \"contracts/DeFiLending.sol\":1082:1089  _amount */\n      dup1\n        /* \"contracts/DeFiLending.sol\":1058:1066  deposits */\n      0x00\n        /* \"contracts/DeFiLending.sol\":1058:1078  deposits[msg.sender] */\n      dup1\n        /* \"contracts/DeFiLending.sol\":1067:1077  msg.sender */\n      caller\n        /* \"contracts/DeFiLending.sol\":1058:1078  deposits[msg.sender] */\n      0xffffffffffffffffffffffffffffffffffffffff\n      and\n      0xffffffffffffffffffffffffffffffffffffffff\n      and\n      dup2\n      mstore\n      0x20\n      add\n      swap1\n      dup2\n      mstore\n      0x20\n      add\n      0x00\n      keccak256\n      0x00\n        /* \"contracts/DeFiLending.sol\":1058:1089  deposits[msg.sender] -= _amount */\n      dup3\n      dup3\n      sload\n      tag_59\n      swap2\n      swap1\n      tag_60\n      jump\t// in\n    tag_59:\n      swap3\n      pop\n      pop\n      dup2\n      swap1\n      sstore\n      pop\n        /* \"contracts/DeFiLending.sol\":1117:1124  _amount */\n      dup1\n        /* \"contracts/DeFiLending.sol\":1100:1113  totalDeposits */\n      0x02\n      0x00\n        /* \"contracts/DeFiLending.sol\":1100:1124  totalDeposits -= _amount */\n      dup3\n      dup3\n      sload\n      tag_61\n      swap2\n      swap1\n      tag_60\n      jump\t// in\n    tag_61:\n      swap3\n      pop\n      pop\n      dup2\n      swap1\n      sstore\n      pop\n        /* \"contracts/DeFiLending.sol\":1143:1153  msg.sender */\n      caller\n        /* \"contracts/DeFiLending.sol\":1135:1163  payable(msg.sender).transfer */\n      0xffffffffffffffffffffffffffffffffffffffff\n      and\n        /* \"contracts/DeFiLending.sol\":1135:1172  payable(msg.sender).transfer(_amount) */\n      0x08fc\n        /* \"contracts/DeFiLending.sol\":1164:1171  _amount */\n      dup3\n        /* \"contracts/DeFiLending.sol\":1135:1172  payable(msg.sender).transfer(_amount) */\n      swap1\n      dup2\n      iszero\n      mul\n      swap1\n      mload(0x40)\n      0x00\n      mload(0x40)\n      dup1\n      dup4\n      sub\n      dup2\n      dup6\n      dup9\n      dup9\n      call\n      swap4\n      pop\n      pop\n      pop\n      pop\n      iszero\n      dup1\n      iszero\n      tag_63\n      jumpi\n      returndatasize\n      0x00\n      dup1\n      returndatacopy\n      revert(0x00, returndatasize)\n    tag_63:\n      pop\n        /* \"contracts/DeFiLending.sol\":1197:1207  msg.sender */\n      caller\n        /* \"contracts/DeFiLending.sol\":1188:1217  Withdraw(msg.sender, _amount) */\n      0xffffffffffffffffffffffffffffffffffffffff\n      and\n      0x884edad9ce6fa2440d8a54cc123490eb96d2768479d49ff9c7366125a9424364\n        /* \"contracts/DeFiLending.sol\":1209:1216  _amount */\n      dup3\n        /* \"contracts/DeFiLending.sol\":1188:1217  Withdraw(msg.sender, _amount) */\n      mload(0x40)\n      tag_64\n      swap2\n      swap1\n      tag_26\n      jump\t// in\n    tag_64:\n      mload(0x40)\n      dup1\n      swap2\n      sub\n      swap1\n      log2\n        /* \"contracts/DeFiLending.sol\":928:1225  function withdraw(uint256 _amount) external {... */\n      pop\n      jump\t// out\n        /* \"contracts/DeFiLending.sol\":1534:1976  function repay() external payable {... */\n    tag_19:\n        /* \"contracts/DeFiLending.sol\":1607:1608  0 */\n      0x00\n        /* \"contracts/DeFiLending.sol\":1587:1592  loans */\n      0x01\n        /* \"contracts/DeFiLending.sol\":1587:1604  loans[msg.sender] */\n      0x00\n        /* \"contracts/DeFiLending.sol\":1593:1603  msg.sender */\n      caller\n        /* \"contracts/DeFiLending.sol\":1587:1604  loans[msg.sender] */\n      0xffffffffffffffffffffffffffffffffffffffff\n      and\n      0xffffffffffffffffffffffffffffffffffffffff\n      and\n      dup2\n      mstore\n      0x20\n      add\n      swap1\n      dup2\n      mstore\n      0x20\n      add\n      0x00\n      keccak256\n      sload\n        /* \"contracts/DeFiLending.sol\":1587:1608  loans[msg.sender] > 0 */\n      gt\n        /* \"contracts/DeFiLending.sol\":1579:1629  require(loans[msg.sender] > 0, \"No loan to repay\") */\n      tag_66\n      jumpi\n      mload(0x40)\n      0x08c379a000000000000000000000000000000000000000000000000000000000\n      dup2\n      mstore\n      0x04\n      add\n      tag_67\n      swap1\n      tag_68\n      jump\t// in\n    tag_67:\n      mload(0x40)\n      dup1\n      swap2\n      sub\n      swap1\n      revert\n    tag_66:\n        /* \"contracts/DeFiLending.sol\":1640:1656  uint256 interest */\n      0x00\n        /* \"contracts/DeFiLending.sol\":1696:1701  10000 */\n      0x2710\n        /* \"contracts/DeFiLending.sol\":1680:1692  interestRate */\n      sload(0x04)\n        /* \"contracts/DeFiLending.sol\":1660:1665  loans */\n      0x01\n        /* \"contracts/DeFiLending.sol\":1660:1677  loans[msg.sender] */\n      0x00\n        /* \"contracts/DeFiLending.sol\":1666:1676  msg.sender */\n      caller\n        /* \"contracts/DeFiLending.sol\":1660:1677  loans[msg.sender] */\n      0xffffffffffffffffffffffffffffffffffffffff\n      and\n      0xffffffffffffffffffffffffffffffffffffffff\n      and\n      dup2\n      mstore\n      0x20\n      add\n      swap1\n      dup2\n      mstore\n      0x20\n      add\n      0x00\n      keccak256\n      sload\n        /* \"contracts/DeFiLending.sol\":1660:1692  loans[msg.sender] * interestRate */\n      tag_69\n      swap2\n      swap1\n      tag_70\n      jump\t// in\n    tag_69:\n        /* \"contracts/DeFiLending.sol\":1659:1701  (loans[msg.sender] * interestRate) / 10000 */\n      tag_71\n      swap2\n      swap1\n      tag_72\n      jump\t// in\n    tag_71:\n        /* \"contracts/DeFiLending.sol\":1640:1701  uint256 interest = (loans[msg.sender] * interestRate) / 10000 */\n      swap1\n      pop\n        /* \"contracts/DeFiLending.sol\":1712:1734  uint256 totalRepayment */\n      0x00\n        /* \"contracts/DeFiLending.sol\":1757:1765  interest */\n      dup2\n        /* \"contracts/DeFiLending.sol\":1737:1742  loans */\n      0x01\n        /* \"contracts/DeFiLending.sol\":1737:1754  loans[msg.sender] */\n      0x00\n        /* \"contracts/DeFiLending.sol\":1743:1753  msg.sender */\n      caller\n        /* \"contracts/DeFiLending.sol\":1737:1754  loans[msg.sender] */\n      0xffffffffffffffffffffffffffffffffffffffff\n      and\n      0xffffffffffffffffffffffffffffffffffffffff\n      and\n      dup2\n      mstore\n      0x20\n      add\n      swap1\n      dup2\n      mstore\n      0x20\n      add\n      0x00\n      keccak256\n      sload\n        /* \"contracts/DeFiLending.sol\":1737:1765  loans[msg.sender] + interest */\n      tag_73\n      swap2\n      swap1\n      tag_74\n      jump\t// in\n    tag_73:\n        /* \"contracts/DeFiLending.sol\":1712:1765  uint256 totalRepayment = loans[msg.sender] + interest */\n      swap1\n      pop\n        /* \"contracts/DeFiLending.sol\":1797:1811  totalRepayment */\n      dup1\n        /* \"contracts/DeFiLending.sol\":1784:1793  msg.value */\n      callvalue\n        /* \"contracts/DeFiLending.sol\":1784:1811  msg.value >= totalRepayment */\n      lt\n      iszero\n        /* \"contracts/DeFiLending.sol\":1776:1845  require(msg.value >= totalRepayment, \"Insufficient repayment amount\") */\n      tag_75\n      jumpi\n      mload(0x40)\n      0x08c379a000000000000000000000000000000000000000000000000000000000\n      dup2\n      mstore\n      0x04\n      add\n      tag_76\n      swap1\n      tag_77\n      jump\t// in\n    tag_76:\n      mload(0x40)\n      dup1\n      swap2\n      sub\n      swap1\n      revert\n    tag_75:\n        /* \"contracts/DeFiLending.sol\":1878:1879  0 */\n      0x00\n        /* \"contracts/DeFiLending.sol\":1858:1863  loans */\n      0x01\n        /* \"contracts/DeFiLending.sol\":1858:1875  loans[msg.sender] */\n      0x00\n        /* \"contracts/DeFiLending.sol\":1864:1874  msg.sender */\n      caller\n        /* \"contracts/DeFiLending.sol\":1858:1875  loans[msg.sender] */\n      0xffffffffffffffffffffffffffffffffffffffff\n      and\n      0xffffffffffffffffffffffffffffffffffffffff\n      and\n      dup2\n      mstore\n      0x20\n      add\n      swap1\n      dup2\n      mstore\n      0x20\n      add\n      0x00\n      keccak256\n        /* \"contracts/DeFiLending.sol\":1858:1879  loans[msg.sender] = 0 */\n      dup2\n      swap1\n      sstore\n      pop\n        /* \"contracts/DeFiLending.sol\":1916:1924  interest */\n      dup2\n        /* \"contracts/DeFiLending.sol\":1904:1913  msg.value */\n      callvalue\n        /* \"contracts/DeFiLending.sol\":1904:1924  msg.value - interest */\n      tag_78\n      swap2\n      swap1\n      tag_60\n      jump\t// in\n    tag_78:\n        /* \"contracts/DeFiLending.sol\":1890:1900  totalLoans */\n      0x03\n      0x00\n        /* \"contracts/DeFiLending.sol\":1890:1924  totalLoans -= msg.value - interest */\n      dup3\n      dup3\n      sload\n      tag_79\n      swap2\n      swap1\n      tag_60\n      jump\t// in\n    tag_79:\n      swap3\n      pop\n      pop\n      dup2\n      swap1\n      sstore\n      pop\n        /* \"contracts/DeFiLending.sol\":1946:1956  msg.sender */\n      caller\n        /* \"contracts/DeFiLending.sol\":1940:1968  Repay(msg.sender, msg.value) */\n      0xffffffffffffffffffffffffffffffffffffffff\n      and\n      0x5c16de4f8b59bd9caf0f49a545f25819a895ed223294290b408242e72a594231\n        /* \"contracts/DeFiLending.sol\":1958:1967  msg.value */\n      callvalue\n        /* \"contracts/DeFiLending.sol\":1940:1968  Repay(msg.sender, msg.value) */\n      mload(0x40)\n      tag_80\n      swap2\n      swap1\n      tag_26\n      jump\t// in\n    tag_80:\n      mload(0x40)\n      dup1\n      swap2\n      sub\n      swap1\n      log2\n        /* \"contracts/DeFiLending.sol\":1568:1976  {... */\n      pop\n      pop\n        /* \"contracts/DeFiLending.sol\":1534:1976  function repay() external payable {... */\n      jump\t// out\n        /* \"contracts/DeFiLending.sol\":138:178  mapping(address => uint256) public loans */\n    tag_24:\n      mstore(0x20, 0x01)\n      dup1\n      0x00\n      mstore\n      keccak256(0x00, 0x40)\n      0x00\n      swap2\n      pop\n      swap1\n      pop\n      sload\n      dup2\n      jump\t// out\n        /* \"contracts/DeFiLending.sol\":252:279  uint256 public interestRate */\n    tag_29:\n      sload(0x04)\n      dup2\n      jump\t// out\n        /* \"contracts/DeFiLending.sol\":185:213  uint256 public totalDeposits */\n    tag_33:\n      sload(0x02)\n      dup2\n      jump\t// out\n        /* \"contracts/DeFiLending.sol\":1984:2116  function calculateInterest(uint256 _amount) public view returns (uint256) {... */\n    tag_38:\n        /* \"contracts/DeFiLending.sol\":2049:2056  uint256 */\n      0x00\n        /* \"contracts/DeFiLending.sol\":2103:2108  10000 */\n      0x2710\n        /* \"contracts/DeFiLending.sol\":2087:2099  interestRate */\n      sload(0x04)\n        /* \"contracts/DeFiLending.sol\":2077:2084  _amount */\n      dup4\n        /* \"contracts/DeFiLending.sol\":2077:2099  _amount * interestRate */\n      tag_82\n      swap2\n      swap1\n      tag_70\n      jump\t// in\n    tag_82:\n        /* \"contracts/DeFiLending.sol\":2076:2108  (_amount * interestRate) / 10000 */\n      tag_83\n      swap2\n      swap1\n      tag_72\n      jump\t// in\n    tag_83:\n        /* \"contracts/DeFiLending.sol\":2069:2108  return (_amount * interestRate) / 10000 */\n      swap1\n      pop\n        /* \"contracts/DeFiLending.sol\":1984:2116  function calculateInterest(uint256 _amount) public view returns (uint256) {... */\n      swap2\n      swap1\n      pop\n      jump\t// out\n        /* \"contracts/DeFiLending.sol\":1233:1526  function borrow(uint256 _amount) external {... */\n    tag_43:\n        /* \"contracts/DeFiLending.sol\":1324:1331  _amount */\n      dup1\n        /* \"contracts/DeFiLending.sol\":1311:1321  totalLoans */\n      sload(0x03)\n        /* \"contracts/DeFiLending.sol\":1311:1331  totalLoans + _amount */\n      tag_85\n      swap2\n      swap1\n      tag_74\n      jump\t// in\n    tag_85:\n        /* \"contracts/DeFiLending.sol\":1294:1307  totalDeposits */\n      sload(0x02)\n        /* \"contracts/DeFiLending.sol\":1294:1331  totalDeposits >= totalLoans + _amount */\n      lt\n      iszero\n        /* \"contracts/DeFiLending.sol\":1286:1358  require(totalDeposits >= totalLoans + _amount, \"Insufficient liquidity\") */\n      tag_86\n      jumpi\n      mload(0x40)\n      0x08c379a000000000000000000000000000000000000000000000000000000000\n      dup2\n      mstore\n      0x04\n      add\n      tag_87\n      swap1\n      tag_88\n      jump\t// in\n    tag_87:\n      mload(0x40)\n      dup1\n      swap2\n      sub\n      swap1\n      revert\n    tag_86:\n        /* \"contracts/DeFiLending.sol\":1390:1397  _amount */\n      dup1\n        /* \"contracts/DeFiLending.sol\":1369:1374  loans */\n      0x01\n        /* \"contracts/DeFiLending.sol\":1369:1386  loans[msg.sender] */\n      0x00\n        /* \"contracts/DeFiLending.sol\":1375:1385  msg.sender */\n      caller\n        /* \"contracts/DeFiLending.sol\":1369:1386  loans[msg.sender] */\n      0xffffffffffffffffffffffffffffffffffffffff\n      and\n      0xffffffffffffffffffffffffffffffffffffffff\n      and\n      dup2\n      mstore\n      0x20\n      add\n      swap1\n      dup2\n      mstore\n      0x20\n      add\n      0x00\n      keccak256\n      0x00\n        /* \"contracts/DeFiLending.sol\":1369:1397  loans[msg.sender] += _amount */\n      dup3\n      dup3\n      sload\n      tag_89\n      swap2\n      swap1\n      tag_74\n      jump\t// in\n    tag_89:\n      swap3\n      pop\n      pop\n      dup2\n      swap1\n      sstore\n      pop\n        /* \"contracts/DeFiLending.sol\":1422:1429  _amount */\n      dup1\n        /* \"contracts/DeFiLending.sol\":1408:1418  totalLoans */\n      0x03\n      0x00\n        /* \"contracts/DeFiLending.sol\":1408:1429  totalLoans += _amount */\n      dup3\n      dup3\n      sload\n      tag_90\n      swap2\n      swap1\n      tag_74\n      jump\t// in\n    tag_90:\n      swap3\n      pop\n      pop\n      dup2\n      swap1\n      sstore\n      pop\n        /* \"contracts/DeFiLending.sol\":1448:1458  msg.sender */\n      caller\n        /* \"contracts/DeFiLending.sol\":1440:1468  payable(msg.sender).transfer */\n      0xffffffffffffffffffffffffffffffffffffffff\n      and\n        /* \"contracts/DeFiLending.sol\":1440:1477  payable(msg.sender).transfer(_amount) */\n      0x08fc\n        /* \"contracts/DeFiLending.sol\":1469:1476  _amount */\n      dup3\n        /* \"contracts/DeFiLending.sol\":1440:1477  payable(msg.sender).transfer(_amount) */\n      swap1\n      dup2\n      iszero\n      mul\n      swap1\n      mload(0x40)\n      0x00\n      mload(0x40)\n      dup1\n      dup4\n      sub\n      dup2\n      dup6\n      dup9\n      dup9\n      call\n      swap4\n      pop\n      pop\n      pop\n      pop\n      iszero\n      dup1\n      iszero\n      tag_92\n      jumpi\n      returndatasize\n      0x00\n      dup1\n      returndatacopy\n      revert(0x00, returndatasize)\n    tag_92:\n      pop\n        /* \"contracts/DeFiLending.sol\":1498:1508  msg.sender */\n      caller\n        /* \"contracts/DeFiLending.sol\":1493:1518  Loan(msg.sender, _amount) */\n      0xffffffffffffffffffffffffffffffffffffffff\n      and\n      0x1db23cf53464267c45324569941e81e23d29c48ff9be2b35af2cc0a2681159d6\n        /* \"contracts/DeFiLending.sol\":1510:1517  _amount */\n      dup3\n        /* \"contracts/DeFiLending.sol\":1493:1518  Loan(msg.sender, _amount) */\n      mload(0x40)\n      tag_93\n      swap2\n      swap1\n      tag_26\n      jump\t// in\n    tag_93:\n      mload(0x40)\n      dup1\n      swap2\n      sub\n      swap1\n      log2\n        /* \"contracts/DeFiLending.sol\":1233:1526  function borrow(uint256 _amount) external {... */\n      pop\n      jump\t// out\n        /* \"contracts/DeFiLending.sol\":220:245  uint256 public totalLoans */\n    tag_46:\n      sload(0x03)\n      dup2\n      jump\t// out\n        /* \"contracts/DeFiLending.sol\":672:920  function deposit() external payable {... */\n    tag_49:\n        /* \"contracts/DeFiLending.sol\":739:740  0 */\n      0x00\n        /* \"contracts/DeFiLending.sol\":727:736  msg.value */\n      callvalue\n        /* \"contracts/DeFiLending.sol\":727:740  msg.value > 0 */\n      gt\n        /* \"contracts/DeFiLending.sol\":719:785  require(msg.value > 0, \"Deposit amount must be greater than zero\") */\n      tag_95\n      jumpi\n      mload(0x40)\n      0x08c379a000000000000000000000000000000000000000000000000000000000\n      dup2\n      mstore\n      0x04\n      add\n      tag_96\n      swap1\n      tag_97\n      jump\t// in\n    tag_96:\n      mload(0x40)\n      dup1\n      swap2\n      sub\n      swap1\n      revert\n    tag_95:\n        /* \"contracts/DeFiLending.sol\":820:829  msg.value */\n      callvalue\n        /* \"contracts/DeFiLending.sol\":796:804  deposits */\n      0x00\n        /* \"contracts/DeFiLending.sol\":796:816  deposits[msg.sender] */\n      dup1\n        /* \"contracts/DeFiLending.sol\":805:815  msg.sender */\n      caller\n        /* \"contracts/DeFiLending.sol\":796:816  deposits[msg.sender] */\n      0xffffffffffffffffffffffffffffffffffffffff\n      and\n      0xffffffffffffffffffffffffffffffffffffffff\n      and\n      dup2\n      mstore\n      0x20\n      add\n      swap1\n      dup2\n      mstore\n      0x20\n      add\n      0x00\n      keccak256\n      0x00\n        /* \"contracts/DeFiLending.sol\":796:829  deposits[msg.sender] += msg.value */\n      dup3\n      dup3\n      sload\n      tag_98\n      swap2\n      swap1\n      tag_74\n      jump\t// in\n    tag_98:\n      swap3\n      pop\n      pop\n      dup2\n      swap1\n      sstore\n      pop\n        /* \"contracts/DeFiLending.sol\":857:866  msg.value */\n      callvalue\n        /* \"contracts/DeFiLending.sol\":840:853  totalDeposits */\n      0x02\n      0x00\n        /* \"contracts/DeFiLending.sol\":840:866  totalDeposits += msg.value */\n      dup3\n      dup3\n      sload\n      tag_99\n      swap2\n      swap1\n      tag_74\n      jump\t// in\n    tag_99:\n      swap3\n      pop\n      pop\n      dup2\n      swap1\n      sstore\n      pop\n        /* \"contracts/DeFiLending.sol\":890:900  msg.sender */\n      caller\n        /* \"contracts/DeFiLending.sol\":882:912  Deposit(msg.sender, msg.value) */\n      0xffffffffffffffffffffffffffffffffffffffff\n      and\n      0xe1fffcc4923d04b559f4d29a8bfc6cda04eb5b0d3c460751c2402c5c5cc9109c\n        /* \"contracts/DeFiLending.sol\":902:911  msg.value */\n      callvalue\n        /* \"contracts/DeFiLending.sol\":882:912  Deposit(msg.sender, msg.value) */\n      mload(0x40)\n      tag_100\n      swap2\n      swap1\n      tag_26\n      jump\t// in\n    tag_100:\n      mload(0x40)\n      dup1\n      swap2\n      sub\n      swap1\n      log2\n        /* \"contracts/DeFiLending.sol\":672:920  function deposit() external payable {... */\n      jump\t// out\n        /* \"contracts/DeFiLending.sol\":88:131  mapping(address => uint256) public deposits */\n    tag_53:\n      mstore(0x20, 0x00)\n      dup1\n      0x00\n      mstore\n      keccak256(0x00, 0x40)\n      0x00\n      swap2\n      pop\n      swap1\n      pop\n      sload\n      dup2\n      jump\t// out\n        /* \"#utility.yul\":88:205   */\n    tag_102:\n        /* \"#utility.yul\":197:198   */\n      0x00\n        /* \"#utility.yul\":194:195   */\n      dup1\n        /* \"#utility.yul\":187:199   */\n      revert\n        /* \"#utility.yul\":334:411   */\n    tag_104:\n        /* \"#utility.yul\":371:378   */\n      0x00\n        /* \"#utility.yul\":400:405   */\n      dup2\n        /* \"#utility.yul\":389:405   */\n      swap1\n      pop\n        /* \"#utility.yul\":334:411   */\n      swap2\n      swap1\n      pop\n      jump\t// out\n        /* \"#utility.yul\":417:539   */\n    tag_105:\n        /* \"#utility.yul\":490:514   */\n      tag_131\n        /* \"#utility.yul\":508:513   */\n      dup2\n        /* \"#utility.yul\":490:514   */\n      tag_104\n      jump\t// in\n    tag_131:\n        /* \"#utility.yul\":483:488   */\n      dup2\n        /* \"#utility.yul\":480:515   */\n      eq\n        /* \"#utility.yul\":470:533   */\n      tag_132\n      jumpi\n        /* \"#utility.yul\":529:530   */\n      0x00\n        /* \"#utility.yul\":526:527   */\n      dup1\n        /* \"#utility.yul\":519:531   */\n      revert\n        /* \"#utility.yul\":470:533   */\n    tag_132:\n        /* \"#utility.yul\":417:539   */\n      pop\n      jump\t// out\n        /* \"#utility.yul\":545:684   */\n    tag_106:\n        /* \"#utility.yul\":591:596   */\n      0x00\n        /* \"#utility.yul\":629:635   */\n      dup2\n        /* \"#utility.yul\":616:636   */\n      calldataload\n        /* \"#utility.yul\":607:636   */\n      swap1\n      pop\n        /* \"#utility.yul\":645:678   */\n      tag_134\n        /* \"#utility.yul\":672:677   */\n      dup2\n        /* \"#utility.yul\":645:678   */\n      tag_105\n      jump\t// in\n    tag_134:\n        /* \"#utility.yul\":545:684   */\n      swap3\n      swap2\n      pop\n      pop\n      jump\t// out\n        /* \"#utility.yul\":690:1019   */\n    tag_16:\n        /* \"#utility.yul\":749:755   */\n      0x00\n        /* \"#utility.yul\":798:800   */\n      0x20\n        /* \"#utility.yul\":786:795   */\n      dup3\n        /* \"#utility.yul\":777:784   */\n      dup5\n        /* \"#utility.yul\":773:796   */\n      sub\n        /* \"#utility.yul\":769:801   */\n      slt\n        /* \"#utility.yul\":766:885   */\n      iszero\n      tag_136\n      jumpi\n        /* \"#utility.yul\":804:883   */\n      tag_137\n      tag_102\n      jump\t// in\n    tag_137:\n        /* \"#utility.yul\":766:885   */\n    tag_136:\n        /* \"#utility.yul\":924:925   */\n      0x00\n        /* \"#utility.yul\":949:1002   */\n      tag_138\n        /* \"#utility.yul\":994:1001   */\n      dup5\n        /* \"#utility.yul\":985:991   */\n      dup3\n        /* \"#utility.yul\":974:983   */\n      dup6\n        /* \"#utility.yul\":970:992   */\n      add\n        /* \"#utility.yul\":949:1002   */\n      tag_106\n      jump\t// in\n    tag_138:\n        /* \"#utility.yul\":939:1002   */\n      swap2\n      pop\n        /* \"#utility.yul\":895:1012   */\n      pop\n        /* \"#utility.yul\":690:1019   */\n      swap3\n      swap2\n      pop\n      pop\n      jump\t// out\n        /* \"#utility.yul\":1025:1151   */\n    tag_107:\n        /* \"#utility.yul\":1062:1069   */\n      0x00\n        /* \"#utility.yul\":1102:1144   */\n      0xffffffffffffffffffffffffffffffffffffffff\n        /* \"#utility.yul\":1095:1100   */\n      dup3\n        /* \"#utility.yul\":1091:1145   */\n      and\n        /* \"#utility.yul\":1080:1145   */\n      swap1\n      pop\n        /* \"#utility.yul\":1025:1151   */\n      swap2\n      swap1\n      pop\n      jump\t// out\n        /* \"#utility.yul\":1157:1253   */\n    tag_108:\n        /* \"#utility.yul\":1194:1201   */\n      0x00\n        /* \"#utility.yul\":1223:1247   */\n      tag_141\n        /* \"#utility.yul\":1241:1246   */\n      dup3\n        /* \"#utility.yul\":1223:1247   */\n      tag_107\n      jump\t// in\n    tag_141:\n        /* \"#utility.yul\":1212:1247   */\n      swap1\n      pop\n        /* \"#utility.yul\":1157:1253   */\n      swap2\n      swap1\n      pop\n      jump\t// out\n        /* \"#utility.yul\":1259:1381   */\n    tag_109:\n        /* \"#utility.yul\":1332:1356   */\n      tag_143\n        /* \"#utility.yul\":1350:1355   */\n      dup2\n        /* \"#utility.yul\":1332:1356   */\n      tag_108\n      jump\t// in\n    tag_143:\n        /* \"#utility.yul\":1325:1330   */\n      dup2\n        /* \"#utility.yul\":1322:1357   */\n      eq\n        /* \"#utility.yul\":1312:1375   */\n      tag_144\n      jumpi\n        /* \"#utility.yul\":1371:1372   */\n      0x00\n        /* \"#utility.yul\":1368:1369   */\n      dup1\n        /* \"#utility.yul\":1361:1373   */\n      revert\n        /* \"#utility.yul\":1312:1375   */\n    tag_144:\n        /* \"#utility.yul\":1259:1381   */\n      pop\n      jump\t// out\n        /* \"#utility.yul\":1387:1526   */\n    tag_110:\n        /* \"#utility.yul\":1433:1438   */\n      0x00\n        /* \"#utility.yul\":1471:1477   */\n      dup2\n        /* \"#utility.yul\":1458:1478   */\n      calldataload\n        /* \"#utility.yul\":1449:1478   */\n      swap1\n      pop\n        /* \"#utility.yul\":1487:1520   */\n      tag_146\n        /* \"#utility.yul\":1514:1519   */\n      dup2\n        /* \"#utility.yul\":1487:1520   */\n      tag_109\n      jump\t// in\n    tag_146:\n        /* \"#utility.yul\":1387:1526   */\n      swap3\n      swap2\n      pop\n      pop\n      jump\t// out\n        /* \"#utility.yul\":1532:1861   */\n    tag_23:\n        /* \"#utility.yul\":1591:1597   */\n      0x00\n        /* \"#utility.yul\":1640:1642   */\n      0x20\n        /* \"#utility.yul\":1628:1637   */\n      dup3\n        /* \"#utility.yul\":1619:1626   */\n      dup5\n        /* \"#utility.yul\":1615:1638   */\n      sub\n        /* \"#utility.yul\":1611:1643   */\n      slt\n        /* \"#utility.yul\":1608:1727   */\n      iszero\n      tag_148\n      jumpi\n        /* \"#utility.yul\":1646:1725   */\n      tag_149\n      tag_102\n      jump\t// in\n    tag_149:\n        /* \"#utility.yul\":1608:1727   */\n    tag_148:\n        /* \"#utility.yul\":1766:1767   */\n      0x00\n        /* \"#utility.yul\":1791:1844   */\n      tag_150\n        /* \"#utility.yul\":1836:1843   */\n      dup5\n        /* \"#utility.yul\":1827:1833   */\n      dup3\n        /* \"#utility.yul\":1816:1825   */\n      dup6\n        /* \"#utility.yul\":1812:1834   */\n      add\n        /* \"#utility.yul\":1791:1844   */\n      tag_110\n      jump\t// in\n    tag_150:\n        /* \"#utility.yul\":1781:1844   */\n      swap2\n      pop\n        /* \"#utility.yul\":1737:1854   */\n      pop\n        /* \"#utility.yul\":1532:1861   */\n      swap3\n      swap2\n      pop\n      pop\n      jump\t// out\n        /* \"#utility.yul\":1867:1985   */\n    tag_111:\n        /* \"#utility.yul\":1954:1978   */\n      tag_152\n        /* \"#utility.yul\":1972:1977   */\n      dup2\n        /* \"#utility.yul\":1954:1978   */\n      tag_104\n      jump\t// in\n    tag_152:\n        /* \"#utility.yul\":1949:1952   */\n      dup3\n        /* \"#utility.yul\":1942:1979   */\n      mstore\n        /* \"#utility.yul\":1867:1985   */\n      pop\n      pop\n      jump\t// out\n        /* \"#utility.yul\":1991:2213   */\n    tag_26:\n        /* \"#utility.yul\":2084:2088   */\n      0x00\n        /* \"#utility.yul\":2122:2124   */\n      0x20\n        /* \"#utility.yul\":2111:2120   */\n      dup3\n        /* \"#utility.yul\":2107:2125   */\n      add\n        /* \"#utility.yul\":2099:2125   */\n      swap1\n      pop\n        /* \"#utility.yul\":2135:2206   */\n      tag_154\n        /* \"#utility.yul\":2203:2204   */\n      0x00\n        /* \"#utility.yul\":2192:2201   */\n      dup4\n        /* \"#utility.yul\":2188:2205   */\n      add\n        /* \"#utility.yul\":2179:2185   */\n      dup5\n        /* \"#utility.yul\":2135:2206   */\n      tag_111\n      jump\t// in\n    tag_154:\n        /* \"#utility.yul\":1991:2213   */\n      swap3\n      swap2\n      pop\n      pop\n      jump\t// out\n        /* \"#utility.yul\":2219:2388   */\n    tag_112:\n        /* \"#utility.yul\":2303:2314   */\n      0x00\n        /* \"#utility.yul\":2337:2343   */\n      dup3\n        /* \"#utility.yul\":2332:2335   */\n      dup3\n        /* \"#utility.yul\":2325:2344   */\n      mstore\n        /* \"#utility.yul\":2377:2381   */\n      0x20\n        /* \"#utility.yul\":2372:2375   */\n      dup3\n        /* \"#utility.yul\":2368:2382   */\n      add\n        /* \"#utility.yul\":2353:2382   */\n      swap1\n      pop\n        /* \"#utility.yul\":2219:2388   */\n      swap3\n      swap2\n      pop\n      pop\n      jump\t// out\n        /* \"#utility.yul\":2394:2564   */\n    tag_113:\n        /* \"#utility.yul\":2534:2556   */\n      0x496e73756666696369656e742062616c616e6365000000000000000000000000\n        /* \"#utility.yul\":2530:2531   */\n      0x00\n        /* \"#utility.yul\":2522:2528   */\n      dup3\n        /* \"#utility.yul\":2518:2532   */\n      add\n        /* \"#utility.yul\":2511:2557   */\n      mstore\n        /* \"#utility.yul\":2394:2564   */\n      pop\n      jump\t// out\n        /* \"#utility.yul\":2570:2936   */\n    tag_114:\n        /* \"#utility.yul\":2712:2715   */\n      0x00\n        /* \"#utility.yul\":2733:2800   */\n      tag_158\n        /* \"#utility.yul\":2797:2799   */\n      0x14\n        /* \"#utility.yul\":2792:2795   */\n      dup4\n        /* \"#utility.yul\":2733:2800   */\n      tag_112\n      jump\t// in\n    tag_158:\n        /* \"#utility.yul\":2726:2800   */\n      swap2\n      pop\n        /* \"#utility.yul\":2809:2902   */\n      tag_159\n        /* \"#utility.yul\":2898:2901   */\n      dup3\n        /* \"#utility.yul\":2809:2902   */\n      tag_113\n      jump\t// in\n    tag_159:\n        /* \"#utility.yul\":2927:2929   */\n      0x20\n        /* \"#utility.yul\":2922:2925   */\n      dup3\n        /* \"#utility.yul\":2918:2930   */\n      add\n        /* \"#utility.yul\":2911:2930   */\n      swap1\n      pop\n        /* \"#utility.yul\":2570:2936   */\n      swap2\n      swap1\n      pop\n      jump\t// out\n        /* \"#utility.yul\":2942:3361   */\n    tag_58:\n        /* \"#utility.yul\":3108:3112   */\n      0x00\n        /* \"#utility.yul\":3146:3148   */\n      0x20\n        /* \"#utility.yul\":3135:3144   */\n      dup3\n        /* \"#utility.yul\":3131:3149   */\n      add\n        /* \"#utility.yul\":3123:3149   */\n      swap1\n      pop\n        /* \"#utility.yul\":3195:3204   */\n      dup2\n        /* \"#utility.yul\":3189:3193   */\n      dup2\n        /* \"#utility.yul\":3185:3205   */\n      sub\n        /* \"#utility.yul\":3181:3182   */\n      0x00\n        /* \"#utility.yul\":3170:3179   */\n      dup4\n        /* \"#utility.yul\":3166:3183   */\n      add\n        /* \"#utility.yul\":3159:3206   */\n      mstore\n        /* \"#utility.yul\":3223:3354   */\n      tag_161\n        /* \"#utility.yul\":3349:3353   */\n      dup2\n        /* \"#utility.yul\":3223:3354   */\n      tag_114\n      jump\t// in\n    tag_161:\n        /* \"#utility.yul\":3215:3354   */\n      swap1\n      pop\n        /* \"#utility.yul\":2942:3361   */\n      swap2\n      swap1\n      pop\n      jump\t// out\n        /* \"#utility.yul\":3367:3547   */\n    tag_115:\n        /* \"#utility.yul\":3415:3492   */\n      0x4e487b7100000000000000000000000000000000000000000000000000000000\n        /* \"#utility.yul\":3412:3413   */\n      0x00\n        /* \"#utility.yul\":3405:3493   */\n      mstore\n        /* \"#utility.yul\":3512:3516   */\n      0x11\n        /* \"#utility.yul\":3509:3510   */\n      0x04\n        /* \"#utility.yul\":3502:3517   */\n      mstore\n        /* \"#utility.yul\":3536:3540   */\n      0x24\n        /* \"#utility.yul\":3533:3534   */\n      0x00\n        /* \"#utility.yul\":3526:3541   */\n      revert\n        /* \"#utility.yul\":3553:3747   */\n    tag_60:\n        /* \"#utility.yul\":3593:3597   */\n      0x00\n        /* \"#utility.yul\":3613:3633   */\n      tag_164\n        /* \"#utility.yul\":3631:3632   */\n      dup3\n        /* \"#utility.yul\":3613:3633   */\n      tag_104\n      jump\t// in\n    tag_164:\n        /* \"#utility.yul\":3608:3633   */\n      swap2\n      pop\n        /* \"#utility.yul\":3647:3667   */\n      tag_165\n        /* \"#utility.yul\":3665:3666   */\n      dup4\n        /* \"#utility.yul\":3647:3667   */\n      tag_104\n      jump\t// in\n    tag_165:\n        /* \"#utility.yul\":3642:3667   */\n      swap3\n      pop\n        /* \"#utility.yul\":3691:3692   */\n      dup3\n        /* \"#utility.yul\":3688:3689   */\n      dup3\n        /* \"#utility.yul\":3684:3693   */\n      sub\n        /* \"#utility.yul\":3676:3693   */\n      swap1\n      pop\n        /* \"#utility.yul\":3715:3716   */\n      dup2\n        /* \"#utility.yul\":3709:3713   */\n      dup2\n        /* \"#utility.yul\":3706:3717   */\n      gt\n        /* \"#utility.yul\":3703:3740   */\n      iszero\n      tag_166\n      jumpi\n        /* \"#utility.yul\":3720:3738   */\n      tag_167\n      tag_115\n      jump\t// in\n    tag_167:\n        /* \"#utility.yul\":3703:3740   */\n    tag_166:\n        /* \"#utility.yul\":3553:3747   */\n      swap3\n      swap2\n      pop\n      pop\n      jump\t// out\n        /* \"#utility.yul\":3753:3919   */\n    tag_116:\n        /* \"#utility.yul\":3893:3911   */\n      0x4e6f206c6f616e20746f20726570617900000000000000000000000000000000\n        /* \"#utility.yul\":3889:3890   */\n      0x00\n        /* \"#utility.yul\":3881:3887   */\n      dup3\n        /* \"#utility.yul\":3877:3891   */\n      add\n        /* \"#utility.yul\":3870:3912   */\n      mstore\n        /* \"#utility.yul\":3753:3919   */\n      pop\n      jump\t// out\n        /* \"#utility.yul\":3925:4291   */\n    tag_117:\n        /* \"#utility.yul\":4067:4070   */\n      0x00\n        /* \"#utility.yul\":4088:4155   */\n      tag_170\n        /* \"#utility.yul\":4152:4154   */\n      0x10\n        /* \"#utility.yul\":4147:4150   */\n      dup4\n        /* \"#utility.yul\":4088:4155   */\n      tag_112\n      jump\t// in\n    tag_170:\n        /* \"#utility.yul\":4081:4155   */\n      swap2\n      pop\n        /* \"#utility.yul\":4164:4257   */\n      tag_171\n        /* \"#utility.yul\":4253:4256   */\n      dup3\n        /* \"#utility.yul\":4164:4257   */\n      tag_116\n      jump\t// in\n    tag_171:\n        /* \"#utility.yul\":4282:4284   */\n      0x20\n        /* \"#utility.yul\":4277:4280   */\n      dup3\n        /* \"#utility.yul\":4273:4285   */\n      add\n        /* \"#utility.yul\":4266:4285   */\n      swap1\n      pop\n        /* \"#utility.yul\":3925:4291   */\n      swap2\n      swap1\n      pop\n      jump\t// out\n        /* \"#utility.yul\":4297:4716   */\n    tag_68:\n        /* \"#utility.yul\":4463:4467   */\n      0x00\n        /* \"#utility.yul\":4501:4503   */\n      0x20\n        /* \"#utility.yul\":4490:4499   */\n      dup3\n        /* \"#utility.yul\":4486:4504   */\n      add\n        /* \"#utility.yul\":4478:4504   */\n      swap1\n      pop\n        /* \"#utility.yul\":4550:4559   */\n      dup2\n        /* \"#utility.yul\":4544:4548   */\n      dup2\n        /* \"#utility.yul\":4540:4560   */\n      sub\n        /* \"#utility.yul\":4536:4537   */\n      0x00\n        /* \"#utility.yul\":4525:4534   */\n      dup4\n        /* \"#utility.yul\":4521:4538   */\n      add\n        /* \"#utility.yul\":4514:4561   */\n      mstore\n        /* \"#utility.yul\":4578:4709   */\n      tag_173\n        /* \"#utility.yul\":4704:4708   */\n      dup2\n        /* \"#utility.yul\":4578:4709   */\n      tag_117\n      jump\t// in\n    tag_173:\n        /* \"#utility.yul\":4570:4709   */\n      swap1\n      pop\n        /* \"#utility.yul\":4297:4716   */\n      swap2\n      swap1\n      pop\n      jump\t// out\n        /* \"#utility.yul\":4722:5132   */\n    tag_70:\n        /* \"#utility.yul\":4762:4769   */\n      0x00\n        /* \"#utility.yul\":4785:4805   */\n      tag_175\n        /* \"#utility.yul\":4803:4804   */\n      dup3\n        /* \"#utility.yul\":4785:4805   */\n      tag_104\n      jump\t// in\n    tag_175:\n        /* \"#utility.yul\":4780:4805   */\n      swap2\n      pop\n        /* \"#utility.yul\":4819:4839   */\n      tag_176\n        /* \"#utility.yul\":4837:4838   */\n      dup4\n        /* \"#utility.yul\":4819:4839   */\n      tag_104\n      jump\t// in\n    tag_176:\n        /* \"#utility.yul\":4814:4839   */\n      swap3\n      pop\n        /* \"#utility.yul\":4874:4875   */\n      dup3\n        /* \"#utility.yul\":4871:4872   */\n      dup3\n        /* \"#utility.yul\":4867:4876   */\n      mul\n        /* \"#utility.yul\":4896:4926   */\n      tag_177\n        /* \"#utility.yul\":4914:4925   */\n      dup2\n        /* \"#utility.yul\":4896:4926   */\n      tag_104\n      jump\t// in\n    tag_177:\n        /* \"#utility.yul\":4885:4926   */\n      swap2\n      pop\n        /* \"#utility.yul\":5075:5076   */\n      dup3\n        /* \"#utility.yul\":5066:5073   */\n      dup3\n        /* \"#utility.yul\":5062:5077   */\n      div\n        /* \"#utility.yul\":5059:5060   */\n      dup5\n        /* \"#utility.yul\":5056:5078   */\n      eq\n        /* \"#utility.yul\":5036:5037   */\n      dup4\n        /* \"#utility.yul\":5029:5038   */\n      iszero\n        /* \"#utility.yul\":5009:5092   */\n      or\n        /* \"#utility.yul\":4986:5125   */\n      tag_178\n      jumpi\n        /* \"#utility.yul\":5105:5123   */\n      tag_179\n      tag_115\n      jump\t// in\n    tag_179:\n        /* \"#utility.yul\":4986:5125   */\n    tag_178:\n        /* \"#utility.yul\":4770:5132   */\n      pop\n        /* \"#utility.yul\":4722:5132   */\n      swap3\n      swap2\n      pop\n      pop\n      jump\t// out\n        /* \"#utility.yul\":5138:5318   */\n    tag_118:\n        /* \"#utility.yul\":5186:5263   */\n      0x4e487b7100000000000000000000000000000000000000000000000000000000\n        /* \"#utility.yul\":5183:5184   */\n      0x00\n        /* \"#utility.yul\":5176:5264   */\n      mstore\n        /* \"#utility.yul\":5283:5287   */\n      0x12\n        /* \"#utility.yul\":5280:5281   */\n      0x04\n        /* \"#utility.yul\":5273:5288   */\n      mstore\n        /* \"#utility.yul\":5307:5311   */\n      0x24\n        /* \"#utility.yul\":5304:5305   */\n      0x00\n        /* \"#utility.yul\":5297:5312   */\n      revert\n        /* \"#utility.yul\":5324:5509   */\n    tag_72:\n        /* \"#utility.yul\":5364:5365   */\n      0x00\n        /* \"#utility.yul\":5381:5401   */\n      tag_182\n        /* \"#utility.yul\":5399:5400   */\n      dup3\n        /* \"#utility.yul\":5381:5401   */\n      tag_104\n      jump\t// in\n    tag_182:\n        /* \"#utility.yul\":5376:5401   */\n      swap2\n      pop\n        /* \"#utility.yul\":5415:5435   */\n      tag_183\n        /* \"#utility.yul\":5433:5434   */\n      dup4\n        /* \"#utility.yul\":5415:5435   */\n      tag_104\n      jump\t// in\n    tag_183:\n        /* \"#utility.yul\":5410:5435   */\n      swap3\n      pop\n        /* \"#utility.yul\":5454:5455   */\n      dup3\n        /* \"#utility.yul\":5444:5479   */\n      tag_184\n      jumpi\n        /* \"#utility.yul\":5459:5477   */\n      tag_185\n      tag_118\n      jump\t// in\n    tag_185:\n        /* \"#utility.yul\":5444:5479   */\n    tag_184:\n        /* \"#utility.yul\":5501:5502   */\n      dup3\n        /* \"#utility.yul\":5498:5499   */\n      dup3\n        /* \"#utility.yul\":5494:5503   */\n      div\n        /* \"#utility.yul\":5489:5503   */\n      swap1\n      pop\n        /* \"#utility.yul\":5324:5509   */\n      swap3\n      swap2\n      pop\n      pop\n      jump\t// out\n        /* \"#utility.yul\":5515:5706   */\n    tag_74:\n        /* \"#utility.yul\":5555:5558   */\n      0x00\n        /* \"#utility.yul\":5574:5594   */\n      tag_187\n        /* \"#utility.yul\":5592:5593   */\n      dup3\n        /* \"#utility.yul\":5574:5594   */\n      tag_104\n      jump\t// in\n    tag_187:\n        /* \"#utility.yul\":5569:5594   */\n      swap2\n      pop\n        /* \"#utility.yul\":5608:5628   */\n      tag_188\n        /* \"#utility.yul\":5626:5627   */\n      dup4\n        /* \"#utility.yul\":5608:5628   */\n      tag_104\n      jump\t// in\n    tag_188:\n        /* \"#utility.yul\":5603:5628   */\n      swap3\n      pop\n        /* \"#utility.yul\":5651:5652   */\n      dup3\n        /* \"#utility.yul\":5648:5649   */\n      dup3\n        /* \"#utility.yul\":5644:5653   */\n      add\n        /* \"#utility.yul\":5637:5653   */\n      swap1\n      pop\n        /* \"#utility.yul\":5672:5675   */\n      dup1\n        /* \"#utility.yul\":5669:5670   */\n      dup3\n        /* \"#utility.yul\":5666:5676   */\n      gt\n        /* \"#utility.yul\":5663:5699   */\n      iszero\n      tag_189\n      jumpi\n        /* \"#utility.yul\":5679:5697   */\n      tag_190\n      tag_115\n      jump\t// in\n    tag_190:\n        /* \"#utility.yul\":5663:5699   */\n    tag_189:\n        /* \"#utility.yul\":5515:5706   */\n      swap3\n      swap2\n      pop\n      pop\n      jump\t// out\n        /* \"#utility.yul\":5712:5891   */\n    tag_119:\n        /* \"#utility.yul\":5852:5883   */\n      0x496e73756666696369656e742072657061796d656e7420616d6f756e74000000\n        /* \"#utility.yul\":5848:5849   */\n      0x00\n        /* \"#utility.yul\":5840:5846   */\n      dup3\n        /* \"#utility.yul\":5836:5850   */\n      add\n        /* \"#utility.yul\":5829:5884   */\n      mstore\n        /* \"#utility.yul\":5712:5891   */\n      pop\n      jump\t// out\n        /* \"#utility.yul\":5897:6263   */\n    tag_120:\n        /* \"#utility.yul\":6039:6042   */\n      0x00\n        /* \"#utility.yul\":6060:6127   */\n      tag_193\n        /* \"#utility.yul\":6124:6126   */\n      0x1d\n        /* \"#utility.yul\":6119:6122   */\n      dup4\n        /* \"#utility.yul\":6060:6127   */\n      tag_112\n      jump\t// in\n    tag_193:\n        /* \"#utility.yul\":6053:6127   */\n      swap2\n      pop\n        /* \"#utility.yul\":6136:6229   */\n      tag_194\n        /* \"#utility.yul\":6225:6228   */\n      dup3\n        /* \"#utility.yul\":6136:6229   */\n      tag_119\n      jump\t// in\n    tag_194:\n        /* \"#utility.yul\":6254:6256   */\n      0x20\n        /* \"#utility.yul\":6249:6252   */\n      dup3\n        /* \"#utility.yul\":6245:6257   */\n      add\n        /* \"#utility.yul\":6238:6257   */\n      swap1\n      pop\n        /* \"#utility.yul\":5897:6263   */\n      swap2\n      swap1\n      pop\n      jump\t// out\n        /* \"#utility.yul\":6269:6688   */\n    tag_77:\n        /* \"#utility.yul\":6435:6439   */\n      0x00\n        /* \"#utility.yul\":6473:6475   */\n      0x20\n        /* \"#utility.yul\":6462:6471   */\n      dup3\n        /* \"#utility.yul\":6458:6476   */\n      add\n        /* \"#utility.yul\":6450:6476   */\n      swap1\n      pop\n        /* \"#utility.yul\":6522:6531   */\n      dup2\n        /* \"#utility.yul\":6516:6520   */\n      dup2\n        /* \"#utility.yul\":6512:6532   */\n      sub\n        /* \"#utility.yul\":6508:6509   */\n      0x00\n        /* \"#utility.yul\":6497:6506   */\n      dup4\n        /* \"#utility.yul\":6493:6510   */\n      add\n        /* \"#utility.yul\":6486:6533   */\n      mstore\n        /* \"#utility.yul\":6550:6681   */\n      tag_196\n        /* \"#utility.yul\":6676:6680   */\n      dup2\n        /* \"#utility.yul\":6550:6681   */\n      tag_120\n      jump\t// in\n    tag_196:\n        /* \"#utility.yul\":6542:6681   */\n      swap1\n      pop\n        /* \"#utility.yul\":6269:6688   */\n      swap2\n      swap1\n      pop\n      jump\t// out\n        /* \"#utility.yul\":6694:6866   */\n    tag_121:\n        /* \"#utility.yul\":6834:6858   */\n      0x496e73756666696369656e74206c697175696469747900000000000000000000\n        /* \"#utility.yul\":6830:6831   */\n      0x00\n        /* \"#utility.yul\":6822:6828   */\n      dup3\n        /* \"#utility.yul\":6818:6832   */\n      add\n        /* \"#utility.yul\":6811:6859   */\n      mstore\n        /* \"#utility.yul\":6694:6866   */\n      pop\n      jump\t// out\n        /* \"#utility.yul\":6872:7238   */\n    tag_122:\n        /* \"#utility.yul\":7014:7017   */\n      0x00\n        /* \"#utility.yul\":7035:7102   */\n      tag_199\n        /* \"#utility.yul\":7099:7101   */\n      0x16\n        /* \"#utility.yul\":7094:7097   */\n      dup4\n        /* \"#utility.yul\":7035:7102   */\n      tag_112\n      jump\t// in\n    tag_199:\n        /* \"#utility.yul\":7028:7102   */\n      swap2\n      pop\n        /* \"#utility.yul\":7111:7204   */\n      tag_200\n        /* \"#utility.yul\":7200:7203   */\n      dup3\n        /* \"#utility.yul\":7111:7204   */\n      tag_121\n      jump\t// in\n    tag_200:\n        /* \"#utility.yul\":7229:7231   */\n      0x20\n        /* \"#utility.yul\":7224:7227   */\n      dup3\n        /* \"#utility.yul\":7220:7232   */\n      add\n        /* \"#utility.yul\":7213:7232   */\n      swap1\n      pop\n        /* \"#utility.yul\":6872:7238   */\n      swap2\n      swap1\n      pop\n      jump\t// out\n        /* \"#utility.yul\":7244:7663   */\n    tag_88:\n        /* \"#utility.yul\":7410:7414   */\n      0x00\n        /* \"#utility.yul\":7448:7450   */\n      0x20\n        /* \"#utility.yul\":7437:7446   */\n      dup3\n        /* \"#utility.yul\":7433:7451   */\n      add\n        /* \"#utility.yul\":7425:7451   */\n      swap1\n      pop\n        /* \"#utility.yul\":7497:7506   */\n      dup2\n        /* \"#utility.yul\":7491:7495   */\n      dup2\n        /* \"#utility.yul\":7487:7507   */\n      sub\n        /* \"#utility.yul\":7483:7484   */\n      0x00\n        /* \"#utility.yul\":7472:7481   */\n      dup4\n        /* \"#utility.yul\":7468:7485   */\n      add\n        /* \"#utility.yul\":7461:7508   */\n      mstore\n        /* \"#utility.yul\":7525:7656   */\n      tag_202\n        /* \"#utility.yul\":7651:7655   */\n      dup2\n        /* \"#utility.yul\":7525:7656   */\n      tag_122\n      jump\t// in\n    tag_202:\n        /* \"#utility.yul\":7517:7656   */\n      swap1\n      pop\n        /* \"#utility.yul\":7244:7663   */\n      swap2\n      swap1\n      pop\n      jump\t// out\n        /* \"#utility.yul\":7669:7896   */\n    tag_123:\n        /* \"#utility.yul\":7809:7843   */\n      0x4465706f73697420616d6f756e74206d75737420626520677265617465722074\n        /* \"#utility.yul\":7805:7806   */\n      0x00\n        /* \"#utility.yul\":7797:7803   */\n      dup3\n        /* \"#utility.yul\":7793:7807   */\n      add\n        /* \"#utility.yul\":7786:7844   */\n      mstore\n        /* \"#utility.yul\":7878:7888   */\n      0x68616e207a65726f000000000000000000000000000000000000000000000000\n        /* \"#utility.yul\":7873:7875   */\n      0x20\n        /* \"#utility.yul\":7865:7871   */\n      dup3\n        /* \"#utility.yul\":7861:7876   */\n      add\n        /* \"#utility.yul\":7854:7889   */\n      mstore\n        /* \"#utility.yul\":7669:7896   */\n      pop\n      jump\t// out\n        /* \"#utility.yul\":7902:8268   */\n    tag_124:\n        /* \"#utility.yul\":8044:8047   */\n      0x00\n        /* \"#utility.yul\":8065:8132   */\n      tag_205\n        /* \"#utility.yul\":8129:8131   */\n      0x28\n        /* \"#utility.yul\":8124:8127   */\n      dup4\n        /* \"#utility.yul\":8065:8132   */\n      tag_112\n      jump\t// in\n    tag_205:\n        /* \"#utility.yul\":8058:8132   */\n      swap2\n      pop\n        /* \"#utility.yul\":8141:8234   */\n      tag_206\n        /* \"#utility.yul\":8230:8233   */\n      dup3\n        /* \"#utility.yul\":8141:8234   */\n      tag_123\n      jump\t// in\n    tag_206:\n        /* \"#utility.yul\":8259:8261   */\n      0x40\n        /* \"#utility.yul\":8254:8257   */\n      dup3\n        /* \"#utility.yul\":8250:8262   */\n      add\n        /* \"#utility.yul\":8243:8262   */\n      swap1\n      pop\n        /* \"#utility.yul\":7902:8268   */\n      swap2\n      swap1\n      pop\n      jump\t// out\n        /* \"#utility.yul\":8274:8693   */\n    tag_97:\n        /* \"#utility.yul\":8440:8444   */\n      0x00\n        /* \"#utility.yul\":8478:8480   */\n      0x20\n        /* \"#utility.yul\":8467:8476   */\n      dup3\n        /* \"#utility.yul\":8463:8481   */\n      add\n        /* \"#utility.yul\":8455:8481   */\n      swap1\n      pop\n        /* \"#utility.yul\":8527:8536   */\n      dup2\n        /* \"#utility.yul\":8521:8525   */\n      dup2\n        /* \"#utility.yul\":8517:8537   */\n      sub\n        /* \"#utility.yul\":8513:8514   */\n      0x00\n        /* \"#utility.yul\":8502:8511   */\n      dup4\n        /* \"#utility.yul\":8498:8515   */\n      add\n        /* \"#utility.yul\":8491:8538   */\n      mstore\n        /* \"#utility.yul\":8555:8686   */\n      tag_208\n        /* \"#utility.yul\":8681:8685   */\n      dup2\n        /* \"#utility.yul\":8555:8686   */\n      tag_124\n      jump\t// in\n    tag_208:\n        /* \"#utility.yul\":8547:8686   */\n      swap1\n      pop\n        /* \"#utility.yul\":8274:8693   */\n      swap2\n      swap1\n      pop\n      jump\t// out\n\n    auxdata: 0xa26469706673582212207ee2dc2e2f08f7e0d3fe3901ad7e4106ef5b8cd4d1d40a94d28bab795b0592bb64736f6c634300081a0033\n}\n",
				"bytecode": {
					"linkReferences": {},
					"object": "6080604052348015600e575f80fd5b50604051610dc7380380610dc78339818101604052810190602e9190606c565b80600481905550506092565b5f80fd5b5f819050919050565b604e81603e565b81146057575f80fd5b50565b5f815190506066816047565b92915050565b5f60208284031215607e57607d603a565b5b5f608984828501605a565b91505092915050565b610d288061009f5f395ff3fe608060405260043610610090575f3560e01c8063a57475e011610058578063a57475e014610156578063c5ebeaec14610192578063cc952b57146101ba578063d0e30db0146101e4578063fc7e286d146101ee57610090565b80632e1a7d4d14610094578063402d8883146100bc57806373b4086b146100c65780637c3a00fd146101025780637d8820971461012c575b5f80fd5b34801561009f575f80fd5b506100ba60048036038101906100b591906108ab565b61022a565b005b6100c46103a8565b005b3480156100d1575f80fd5b506100ec60048036038101906100e79190610930565b6105c8565b6040516100f9919061096a565b60405180910390f35b34801561010d575f80fd5b506101166105dd565b604051610123919061096a565b60405180910390f35b348015610137575f80fd5b506101406105e3565b60405161014d919061096a565b60405180910390f35b348015610161575f80fd5b5061017c600480360381019061017791906108ab565b6105e9565b604051610189919061096a565b60405180910390f35b34801561019d575f80fd5b506101b860048036038101906101b391906108ab565b61060c565b005b3480156101c5575f80fd5b506101ce61075e565b6040516101db919061096a565b60405180910390f35b6101ec610764565b005b3480156101f9575f80fd5b50610214600480360381019061020f9190610930565b610860565b604051610221919061096a565b60405180910390f35b805f803373ffffffffffffffffffffffffffffffffffffffff1673ffffffffffffffffffffffffffffffffffffffff1681526020019081526020015f205410156102a9576040517f08c379a00000000000000000000000000000000000000000000000000000000081526004016102a0906109dd565b60405180910390fd5b805f803373ffffffffffffffffffffffffffffffffffffffff1673ffffffffffffffffffffffffffffffffffffffff1681526020019081526020015f205f8282546102f49190610a28565b925050819055508060025f82825461030c9190610a28565b925050819055503373ffffffffffffffffffffffffffffffffffffffff166108fc8290811502906040515f60405180830381858888f19350505050158015610356573d5f803e3d5ffd5b503373ffffffffffffffffffffffffffffffffffffffff167f884edad9ce6fa2440d8a54cc123490eb96d2768479d49ff9c7366125a94243648260405161039d919061096a565b60405180910390a250565b5f60015f3373ffffffffffffffffffffffffffffffffffffffff1673ffffffffffffffffffffffffffffffffffffffff1681526020019081526020015f205411610427576040517f08c379a000000000000000000000000000000000000000000000000000000000815260040161041e90610aa5565b60405180910390fd5b5f61271060045460015f3373ffffffffffffffffffffffffffffffffffffffff1673ffffffffffffffffffffffffffffffffffffffff1681526020019081526020015f20546104769190610ac3565b6104809190610b31565b90505f8160015f3373ffffffffffffffffffffffffffffffffffffffff1673ffffffffffffffffffffffffffffffffffffffff1681526020019081526020015f20546104cc9190610b61565b905080341015610511576040517f08c379a000000000000000000000000000000000000000000000000000000000815260040161050890610bde565b60405180910390fd5b5f60015f3373ffffffffffffffffffffffffffffffffffffffff1673ffffffffffffffffffffffffffffffffffffffff1681526020019081526020015f2081905550813461055f9190610a28565b60035f82825461056f9190610a28565b925050819055503373ffffffffffffffffffffffffffffffffffffffff167f5c16de4f8b59bd9caf0f49a545f25819a895ed223294290b408242e72a594231346040516105bc919061096a565b60405180910390a25050565b6001602052805f5260405f205f915090505481565b60045481565b60025481565b5f612710600454836105fb9190610ac3565b6106059190610b31565b9050919050565b8060035461061a9190610b61565b600254101561065e576040517f08c379a000000000000000000000000000000000000000000000000000000000815260040161065590610c46565b60405180910390fd5b8060015f3373ffffffffffffffffffffffffffffffffffffffff1673ffffffffffffffffffffffffffffffffffffffff1681526020019081526020015f205f8282546106aa9190610b61565b925050819055508060035f8282546106c29190610b61565b925050819055503373ffffffffffffffffffffffffffffffffffffffff166108fc8290811502906040515f60405180830381858888f1935050505015801561070c573d5f803e3d5ffd5b503373ffffffffffffffffffffffffffffffffffffffff167f1db23cf53464267c45324569941e81e23d29c48ff9be2b35af2cc0a2681159d682604051610753919061096a565b60405180910390a250565b60035481565b5f34116107a6576040517f08c379a000000000000000000000000000000000000000000000000000000000815260040161079d90610cd4565b60405180910390fd5b345f803373ffffffffffffffffffffffffffffffffffffffff1673ffffffffffffffffffffffffffffffffffffffff1681526020019081526020015f205f8282546107f19190610b61565b925050819055503460025f8282546108099190610b61565b925050819055503373ffffffffffffffffffffffffffffffffffffffff167fe1fffcc4923d04b559f4d29a8bfc6cda04eb5b0d3c460751c2402c5c5cc9109c34604051610856919061096a565b60405180910390a2565b5f602052805f5260405f205f915090505481565b5f80fd5b5f819050919050565b61088a81610878565b8114610894575f80fd5b50565b5f813590506108a581610881565b92915050565b5f602082840312156108c0576108bf610874565b5b5f6108cd84828501610897565b91505092915050565b5f73ffffffffffffffffffffffffffffffffffffffff82169050919050565b5f6108ff826108d6565b9050919050565b61090f816108f5565b8114610919575f80fd5b50565b5f8135905061092a81610906565b92915050565b5f6020828403121561094557610944610874565b5b5f6109528482850161091c565b91505092915050565b61096481610878565b82525050565b5f60208201905061097d5f83018461095b565b92915050565b5f82825260208201905092915050565b7f496e73756666696369656e742062616c616e63650000000000000000000000005f82015250565b5f6109c7601483610983565b91506109d282610993565b602082019050919050565b5f6020820190508181035f8301526109f4816109bb565b9050919050565b7f4e487b71000000000000000000000000000000000000000000000000000000005f52601160045260245ffd5b5f610a3282610878565b9150610a3d83610878565b9250828203905081811115610a5557610a546109fb565b5b92915050565b7f4e6f206c6f616e20746f207265706179000000000000000000000000000000005f82015250565b5f610a8f601083610983565b9150610a9a82610a5b565b602082019050919050565b5f6020820190508181035f830152610abc81610a83565b9050919050565b5f610acd82610878565b9150610ad883610878565b9250828202610ae681610878565b91508282048414831517610afd57610afc6109fb565b5b5092915050565b7f4e487b71000000000000000000000000000000000000000000000000000000005f52601260045260245ffd5b5f610b3b82610878565b9150610b4683610878565b925082610b5657610b55610b04565b5b828204905092915050565b5f610b6b82610878565b9150610b7683610878565b9250828201905080821115610b8e57610b8d6109fb565b5b92915050565b7f496e73756666696369656e742072657061796d656e7420616d6f756e740000005f82015250565b5f610bc8601d83610983565b9150610bd382610b94565b602082019050919050565b5f6020820190508181035f830152610bf581610bbc565b9050919050565b7f496e73756666696369656e74206c6971756964697479000000000000000000005f82015250565b5f610c30601683610983565b9150610c3b82610bfc565b602082019050919050565b5f6020820190508181035f830152610c5d81610c24565b9050919050565b7f4465706f73697420616d6f756e74206d757374206265206772656174657220745f8201527f68616e207a65726f000000000000000000000000000000000000000000000000602082015250565b5f610cbe602883610983565b9150610cc982610c64565b604082019050919050565b5f6020820190508181035f830152610ceb81610cb2565b905091905056fea26469706673582212207ee2dc2e2f08f7e0d3fe3901ad7e4106ef5b8cd4d1d40a94d28bab795b0592bb64736f6c634300081a0033",
					"opcodes": "PUSH1 0x80 PUSH1 0x40 MSTORE CALLVALUE DUP1 ISZERO PUSH1 0xE JUMPI PUSH0 DUP1 REVERT JUMPDEST POP PUSH1 0x40 MLOAD PUSH2 0xDC7 CODESIZE SUB DUP1 PUSH2 0xDC7 DUP4 CODECOPY DUP2 DUP2 ADD PUSH1 0x40 MSTORE DUP2 ADD SWAP1 PUSH1 0x2E SWAP2 SWAP1 PUSH1 0x6C JUMP JUMPDEST DUP1 PUSH1 0x4 DUP2 SWAP1 SSTORE POP POP PUSH1 0x92 JUMP JUMPDEST PUSH0 DUP1 REVERT JUMPDEST PUSH0 DUP2 SWAP1 POP SWAP2 SWAP1 POP JUMP JUMPDEST PUSH1 0x4E DUP2 PUSH1 0x3E JUMP JUMPDEST DUP2 EQ PUSH1 0x57 JUMPI PUSH0 DUP1 REVERT JUMPDEST POP JUMP JUMPDEST PUSH0 DUP2 MLOAD SWAP1 POP PUSH1 0x66 DUP2 PUSH1 0x47 JUMP JUMPDEST SWAP3 SWAP2 POP POP JUMP JUMPDEST PUSH0 PUSH1 0x20 DUP3 DUP5 SUB SLT ISZERO PUSH1 0x7E JUMPI PUSH1 0x7D PUSH1 0x3A JUMP JUMPDEST JUMPDEST PUSH0 PUSH1 0x89 DUP5 DUP3 DUP6 ADD PUSH1 0x5A JUMP JUMPDEST SWAP2 POP POP SWAP3 SWAP2 POP POP JUMP JUMPDEST PUSH2 0xD28 DUP1 PUSH2 0x9F PUSH0 CODECOPY PUSH0 RETURN INVALID PUSH1 0x80 PUSH1 0x40 MSTORE PUSH1 0x4 CALLDATASIZE LT PUSH2 0x90 JUMPI PUSH0 CALLDATALOAD PUSH1 0xE0 SHR DUP1 PUSH4 0xA57475E0 GT PUSH2 0x58 JUMPI DUP1 PUSH4 0xA57475E0 EQ PUSH2 0x156 JUMPI DUP1 PUSH4 0xC5EBEAEC EQ PUSH2 0x192 JUMPI DUP1 PUSH4 0xCC952B57 EQ PUSH2 0x1BA JUMPI DUP1 PUSH4 0xD0E30DB0 EQ PUSH2 0x1E4 JUMPI DUP1 PUSH4 0xFC7E286D EQ PUSH2 0x1EE JUMPI PUSH2 0x90 JUMP JUMPDEST DUP1 PUSH4 0x2E1A7D4D EQ PUSH2 0x94 JUMPI DUP1 PUSH4 0x402D8883 EQ PUSH2 0xBC JUMPI DUP1 PUSH4 0x73B4086B EQ PUSH2 0xC6 JUMPI DUP1 PUSH4 0x7C3A00FD EQ PUSH2 0x102 JUMPI DUP1 PUSH4 0x7D882097 EQ PUSH2 0x12C JUMPI JUMPDEST PUSH0 DUP1 REVERT JUMPDEST CALLVALUE DUP1 ISZERO PUSH2 0x9F JUMPI PUSH0 DUP1 REVERT JUMPDEST POP PUSH2 0xBA PUSH1 0x4 DUP1 CALLDATASIZE SUB DUP2 ADD SWAP1 PUSH2 0xB5 SWAP2 SWAP1 PUSH2 0x8AB JUMP JUMPDEST PUSH2 0x22A JUMP JUMPDEST STOP JUMPDEST PUSH2 0xC4 PUSH2 0x3A8 JUMP JUMPDEST STOP JUMPDEST CALLVALUE DUP1 ISZERO PUSH2 0xD1 JUMPI PUSH0 DUP1 REVERT JUMPDEST POP PUSH2 0xEC PUSH1 0x4 DUP1 CALLDATASIZE SUB DUP2 ADD SWAP1 PUSH2 0xE7 SWAP2 SWAP1 PUSH2 0x930 JUMP JUMPDEST PUSH2 0x5C8 JUMP JUMPDEST PUSH1 0x40 MLOAD PUSH2 0xF9 SWAP2 SWAP1 PUSH2 0x96A JUMP JUMPDEST PUSH1 0x40 MLOAD DUP1 SWAP2 SUB SWAP1 RETURN JUMPDEST CALLVALUE DUP1 ISZERO PUSH2 0x10D JUMPI PUSH0 DUP1 REVERT JUMPDEST POP PUSH2 0x116 PUSH2 0x5DD JUMP JUMPDEST PUSH1 0x40 MLOAD PUSH2 0x123 SWAP2 SWAP1 PUSH2 0x96A JUMP JUMPDEST PUSH1 0x40 MLOAD DUP1 SWAP2 SUB SWAP1 RETURN JUMPDEST CALLVALUE DUP1 ISZERO PUSH2 0x137 JUMPI PUSH0 DUP1 REVERT JUMPDEST POP PUSH2 0x140 PUSH2 0x5E3 JUMP JUMPDEST PUSH1 0x40 MLOAD PUSH2 0x14D SWAP2 SWAP1 PUSH2 0x96A JUMP JUMPDEST PUSH1 0x40 MLOAD DUP1 SWAP2 SUB SWAP1 RETURN JUMPDEST CALLVALUE DUP1 ISZERO PUSH2 0x161 JUMPI PUSH0 DUP1 REVERT JUMPDEST POP PUSH2 0x17C PUSH1 0x4 DUP1 CALLDATASIZE SUB DUP2 ADD SWAP1 PUSH2 0x177 SWAP2 SWAP1 PUSH2 0x8AB JUMP JUMPDEST PUSH2 0x5E9 JUMP JUMPDEST PUSH1 0x40 MLOAD PUSH2 0x189 SWAP2 SWAP1 PUSH2 0x96A JUMP JUMPDEST PUSH1 0x40 MLOAD DUP1 SWAP2 SUB SWAP1 RETURN JUMPDEST CALLVALUE DUP1 ISZERO PUSH2 0x19D JUMPI PUSH0 DUP1 REVERT JUMPDEST POP PUSH2 0x1B8 PUSH1 0x4 DUP1 CALLDATASIZE SUB DUP2 ADD SWAP1 PUSH2 0x1B3 SWAP2 SWAP1 PUSH2 0x8AB JUMP JUMPDEST PUSH2 0x60C JUMP JUMPDEST STOP JUMPDEST CALLVALUE DUP1 ISZERO PUSH2 0x1C5 JUMPI PUSH0 DUP1 REVERT JUMPDEST POP PUSH2 0x1CE PUSH2 0x75E JUMP JUMPDEST PUSH1 0x40 MLOAD PUSH2 0x1DB SWAP2 SWAP1 PUSH2 0x96A JUMP JUMPDEST PUSH1 0x40 MLOAD DUP1 SWAP2 SUB SWAP1 RETURN JUMPDEST PUSH2 0x1EC PUSH2 0x764 JUMP JUMPDEST STOP JUMPDEST CALLVALUE DUP1 ISZERO PUSH2 0x1F9 JUMPI PUSH0 DUP1 REVERT JUMPDEST POP PUSH2 0x214 PUSH1 0x4 DUP1 CALLDATASIZE SUB DUP2 ADD SWAP1 PUSH2 0x20F SWAP2 SWAP1 PUSH2 0x930 JUMP JUMPDEST PUSH2 0x860 JUMP JUMPDEST PUSH1 0x40 MLOAD PUSH2 0x221 SWAP2 SWAP1 PUSH2 0x96A JUMP JUMPDEST PUSH1 0x40 MLOAD DUP1 SWAP2 SUB SWAP1 RETURN JUMPDEST DUP1 PUSH0 DUP1 CALLER PUSH20 0xFFFFFFFFFFFFFFFFFFFFFFFFFFFFFFFFFFFFFFFF AND PUSH20 0xFFFFFFFFFFFFFFFFFFFFFFFFFFFFFFFFFFFFFFFF AND DUP2 MSTORE PUSH1 0x20 ADD SWAP1 DUP2 MSTORE PUSH1 0x20 ADD PUSH0 KECCAK256 SLOAD LT ISZERO PUSH2 0x2A9 JUMPI PUSH1 0x40 MLOAD PUSH32 0x8C379A000000000000000000000000000000000000000000000000000000000 DUP2 MSTORE PUSH1 0x4 ADD PUSH2 0x2A0 SWAP1 PUSH2 0x9DD JUMP JUMPDEST PUSH1 0x40 MLOAD DUP1 SWAP2 SUB SWAP1 REVERT JUMPDEST DUP1 PUSH0 DUP1 CALLER PUSH20 0xFFFFFFFFFFFFFFFFFFFFFFFFFFFFFFFFFFFFFFFF AND PUSH20 0xFFFFFFFFFFFFFFFFFFFFFFFFFFFFFFFFFFFFFFFF AND DUP2 MSTORE PUSH1 0x20 ADD SWAP1 DUP2 MSTORE PUSH1 0x20 ADD PUSH0 KECCAK256 PUSH0 DUP3 DUP3 SLOAD PUSH2 0x2F4 SWAP2 SWAP1 PUSH2 0xA28 JUMP JUMPDEST SWAP3 POP POP DUP2 SWAP1 SSTORE POP DUP1 PUSH1 0x2 PUSH0 DUP3 DUP3 SLOAD PUSH2 0x30C SWAP2 SWAP1 PUSH2 0xA28 JUMP JUMPDEST SWAP3 POP POP DUP2 SWAP1 SSTORE POP CALLER PUSH20 0xFFFFFFFFFFFFFFFFFFFFFFFFFFFFFFFFFFFFFFFF AND PUSH2 0x8FC DUP3 SWAP1 DUP2 ISZERO MUL SWAP1 PUSH1 0x40 MLOAD PUSH0 PUSH1 0x40 MLOAD DUP1 DUP4 SUB DUP2 DUP6 DUP9 DUP9 CALL SWAP4 POP POP POP POP ISZERO DUP1 ISZERO PUSH2 0x356 JUMPI RETURNDATASIZE PUSH0 DUP1 RETURNDATACOPY RETURNDATASIZE PUSH0 REVERT JUMPDEST POP CALLER PUSH20 0xFFFFFFFFFFFFFFFFFFFFFFFFFFFFFFFFFFFFFFFF AND PUSH32 0x884EDAD9CE6FA2440D8A54CC123490EB96D2768479D49FF9C7366125A9424364 DUP3 PUSH1 0x40 MLOAD PUSH2 0x39D SWAP2 SWAP1 PUSH2 0x96A JUMP JUMPDEST PUSH1 0x40 MLOAD DUP1 SWAP2 SUB SWAP1 LOG2 POP JUMP JUMPDEST PUSH0 PUSH1 0x1 PUSH0 CALLER PUSH20 0xFFFFFFFFFFFFFFFFFFFFFFFFFFFFFFFFFFFFFFFF AND PUSH20 0xFFFFFFFFFFFFFFFFFFFFFFFFFFFFFFFFFFFFFFFF AND DUP2 MSTORE PUSH1 0x20 ADD SWAP1 DUP2 MSTORE PUSH1 0x20 ADD PUSH0 KECCAK256 SLOAD GT PUSH2 0x427 JUMPI PUSH1 0x40 MLOAD PUSH32 0x8C379A000000000000000000000000000000000000000000000000000000000 DUP2 MSTORE PUSH1 0x4 ADD PUSH2 0x41E SWAP1 PUSH2 0xAA5 JUMP JUMPDEST PUSH1 0x40 MLOAD DUP1 SWAP2 SUB SWAP1 REVERT JUMPDEST PUSH0 PUSH2 0x2710 PUSH1 0x4 SLOAD PUSH1 0x1 PUSH0 CALLER PUSH20 0xFFFFFFFFFFFFFFFFFFFFFFFFFFFFFFFFFFFFFFFF AND PUSH20 0xFFFFFFFFFFFFFFFFFFFFFFFFFFFFFFFFFFFFFFFF AND DUP2 MSTORE PUSH1 0x20 ADD SWAP1 DUP2 MSTORE PUSH1 0x20 ADD PUSH0 KECCAK256 SLOAD PUSH2 0x476 SWAP2 SWAP1 PUSH2 0xAC3 JUMP JUMPDEST PUSH2 0x480 SWAP2 SWAP1 PUSH2 0xB31 JUMP JUMPDEST SWAP1 POP PUSH0 DUP2 PUSH1 0x1 PUSH0 CALLER PUSH20 0xFFFFFFFFFFFFFFFFFFFFFFFFFFFFFFFFFFFFFFFF AND PUSH20 0xFFFFFFFFFFFFFFFFFFFFFFFFFFFFFFFFFFFFFFFF AND DUP2 MSTORE PUSH1 0x20 ADD SWAP1 DUP2 MSTORE PUSH1 0x20 ADD PUSH0 KECCAK256 SLOAD PUSH2 0x4CC SWAP2 SWAP1 PUSH2 0xB61 JUMP JUMPDEST SWAP1 POP DUP1 CALLVALUE LT ISZERO PUSH2 0x511 JUMPI PUSH1 0x40 MLOAD PUSH32 0x8C379A000000000000000000000000000000000000000000000000000000000 DUP2 MSTORE PUSH1 0x4 ADD PUSH2 0x508 SWAP1 PUSH2 0xBDE JUMP JUMPDEST PUSH1 0x40 MLOAD DUP1 SWAP2 SUB SWAP1 REVERT JUMPDEST PUSH0 PUSH1 0x1 PUSH0 CALLER PUSH20 0xFFFFFFFFFFFFFFFFFFFFFFFFFFFFFFFFFFFFFFFF AND PUSH20 0xFFFFFFFFFFFFFFFFFFFFFFFFFFFFFFFFFFFFFFFF AND DUP2 MSTORE PUSH1 0x20 ADD SWAP1 DUP2 MSTORE PUSH1 0x20 ADD PUSH0 KECCAK256 DUP2 SWAP1 SSTORE POP DUP2 CALLVALUE PUSH2 0x55F SWAP2 SWAP1 PUSH2 0xA28 JUMP JUMPDEST PUSH1 0x3 PUSH0 DUP3 DUP3 SLOAD PUSH2 0x56F SWAP2 SWAP1 PUSH2 0xA28 JUMP JUMPDEST SWAP3 POP POP DUP2 SWAP1 SSTORE POP CALLER PUSH20 0xFFFFFFFFFFFFFFFFFFFFFFFFFFFFFFFFFFFFFFFF AND PUSH32 0x5C16DE4F8B59BD9CAF0F49A545F25819A895ED223294290B408242E72A594231 CALLVALUE PUSH1 0x40 MLOAD PUSH2 0x5BC SWAP2 SWAP1 PUSH2 0x96A JUMP JUMPDEST PUSH1 0x40 MLOAD DUP1 SWAP2 SUB SWAP1 LOG2 POP POP JUMP JUMPDEST PUSH1 0x1 PUSH1 0x20 MSTORE DUP1 PUSH0 MSTORE PUSH1 0x40 PUSH0 KECCAK256 PUSH0 SWAP2 POP SWAP1 POP SLOAD DUP2 JUMP JUMPDEST PUSH1 0x4 SLOAD DUP2 JUMP JUMPDEST PUSH1 0x2 SLOAD DUP2 JUMP JUMPDEST PUSH0 PUSH2 0x2710 PUSH1 0x4 SLOAD DUP4 PUSH2 0x5FB SWAP2 SWAP1 PUSH2 0xAC3 JUMP JUMPDEST PUSH2 0x605 SWAP2 SWAP1 PUSH2 0xB31 JUMP JUMPDEST SWAP1 POP SWAP2 SWAP1 POP JUMP JUMPDEST DUP1 PUSH1 0x3 SLOAD PUSH2 0x61A SWAP2 SWAP1 PUSH2 0xB61 JUMP JUMPDEST PUSH1 0x2 SLOAD LT ISZERO PUSH2 0x65E JUMPI PUSH1 0x40 MLOAD PUSH32 0x8C379A000000000000000000000000000000000000000000000000000000000 DUP2 MSTORE PUSH1 0x4 ADD PUSH2 0x655 SWAP1 PUSH2 0xC46 JUMP JUMPDEST PUSH1 0x40 MLOAD DUP1 SWAP2 SUB SWAP1 REVERT JUMPDEST DUP1 PUSH1 0x1 PUSH0 CALLER PUSH20 0xFFFFFFFFFFFFFFFFFFFFFFFFFFFFFFFFFFFFFFFF AND PUSH20 0xFFFFFFFFFFFFFFFFFFFFFFFFFFFFFFFFFFFFFFFF AND DUP2 MSTORE PUSH1 0x20 ADD SWAP1 DUP2 MSTORE PUSH1 0x20 ADD PUSH0 KECCAK256 PUSH0 DUP3 DUP3 SLOAD PUSH2 0x6AA SWAP2 SWAP1 PUSH2 0xB61 JUMP JUMPDEST SWAP3 POP POP DUP2 SWAP1 SSTORE POP DUP1 PUSH1 0x3 PUSH0 DUP3 DUP3 SLOAD PUSH2 0x6C2 SWAP2 SWAP1 PUSH2 0xB61 JUMP JUMPDEST SWAP3 POP POP DUP2 SWAP1 SSTORE POP CALLER PUSH20 0xFFFFFFFFFFFFFFFFFFFFFFFFFFFFFFFFFFFFFFFF AND PUSH2 0x8FC DUP3 SWAP1 DUP2 ISZERO MUL SWAP1 PUSH1 0x40 MLOAD PUSH0 PUSH1 0x40 MLOAD DUP1 DUP4 SUB DUP2 DUP6 DUP9 DUP9 CALL SWAP4 POP POP POP POP ISZERO DUP1 ISZERO PUSH2 0x70C JUMPI RETURNDATASIZE PUSH0 DUP1 RETURNDATACOPY RETURNDATASIZE PUSH0 REVERT JUMPDEST POP CALLER PUSH20 0xFFFFFFFFFFFFFFFFFFFFFFFFFFFFFFFFFFFFFFFF AND PUSH32 0x1DB23CF53464267C45324569941E81E23D29C48FF9BE2B35AF2CC0A2681159D6 DUP3 PUSH1 0x40 MLOAD PUSH2 0x753 SWAP2 SWAP1 PUSH2 0x96A JUMP JUMPDEST PUSH1 0x40 MLOAD DUP1 SWAP2 SUB SWAP1 LOG2 POP JUMP JUMPDEST PUSH1 0x3 SLOAD DUP2 JUMP JUMPDEST PUSH0 CALLVALUE GT PUSH2 0x7A6 JUMPI PUSH1 0x40 MLOAD PUSH32 0x8C379A000000000000000000000000000000000000000000000000000000000 DUP2 MSTORE PUSH1 0x4 ADD PUSH2 0x79D SWAP1 PUSH2 0xCD4 JUMP JUMPDEST PUSH1 0x40 MLOAD DUP1 SWAP2 SUB SWAP1 REVERT JUMPDEST CALLVALUE PUSH0 DUP1 CALLER PUSH20 0xFFFFFFFFFFFFFFFFFFFFFFFFFFFFFFFFFFFFFFFF AND PUSH20 0xFFFFFFFFFFFFFFFFFFFFFFFFFFFFFFFFFFFFFFFF AND DUP2 MSTORE PUSH1 0x20 ADD SWAP1 DUP2 MSTORE PUSH1 0x20 ADD PUSH0 KECCAK256 PUSH0 DUP3 DUP3 SLOAD PUSH2 0x7F1 SWAP2 SWAP1 PUSH2 0xB61 JUMP JUMPDEST SWAP3 POP POP DUP2 SWAP1 SSTORE POP CALLVALUE PUSH1 0x2 PUSH0 DUP3 DUP3 SLOAD PUSH2 0x809 SWAP2 SWAP1 PUSH2 0xB61 JUMP JUMPDEST SWAP3 POP POP DUP2 SWAP1 SSTORE POP CALLER PUSH20 0xFFFFFFFFFFFFFFFFFFFFFFFFFFFFFFFFFFFFFFFF AND PUSH32 0xE1FFFCC4923D04B559F4D29A8BFC6CDA04EB5B0D3C460751C2402C5C5CC9109C CALLVALUE PUSH1 0x40 MLOAD PUSH2 0x856 SWAP2 SWAP1 PUSH2 0x96A JUMP JUMPDEST PUSH1 0x40 MLOAD DUP1 SWAP2 SUB SWAP1 LOG2 JUMP JUMPDEST PUSH0 PUSH1 0x20 MSTORE DUP1 PUSH0 MSTORE PUSH1 0x40 PUSH0 KECCAK256 PUSH0 SWAP2 POP SWAP1 POP SLOAD DUP2 JUMP JUMPDEST PUSH0 DUP1 REVERT JUMPDEST PUSH0 DUP2 SWAP1 POP SWAP2 SWAP1 POP JUMP JUMPDEST PUSH2 0x88A DUP2 PUSH2 0x878 JUMP JUMPDEST DUP2 EQ PUSH2 0x894 JUMPI PUSH0 DUP1 REVERT JUMPDEST POP JUMP JUMPDEST PUSH0 DUP2 CALLDATALOAD SWAP1 POP PUSH2 0x8A5 DUP2 PUSH2 0x881 JUMP JUMPDEST SWAP3 SWAP2 POP POP JUMP JUMPDEST PUSH0 PUSH1 0x20 DUP3 DUP5 SUB SLT ISZERO PUSH2 0x8C0 JUMPI PUSH2 0x8BF PUSH2 0x874 JUMP JUMPDEST JUMPDEST PUSH0 PUSH2 0x8CD DUP5 DUP3 DUP6 ADD PUSH2 0x897 JUMP JUMPDEST SWAP2 POP POP SWAP3 SWAP2 POP POP JUMP JUMPDEST PUSH0 PUSH20 0xFFFFFFFFFFFFFFFFFFFFFFFFFFFFFFFFFFFFFFFF DUP3 AND SWAP1 POP SWAP2 SWAP1 POP JUMP JUMPDEST PUSH0 PUSH2 0x8FF DUP3 PUSH2 0x8D6 JUMP JUMPDEST SWAP1 POP SWAP2 SWAP1 POP JUMP JUMPDEST PUSH2 0x90F DUP2 PUSH2 0x8F5 JUMP JUMPDEST DUP2 EQ PUSH2 0x919 JUMPI PUSH0 DUP1 REVERT JUMPDEST POP JUMP JUMPDEST PUSH0 DUP2 CALLDATALOAD SWAP1 POP PUSH2 0x92A DUP2 PUSH2 0x906 JUMP JUMPDEST SWAP3 SWAP2 POP POP JUMP JUMPDEST PUSH0 PUSH1 0x20 DUP3 DUP5 SUB SLT ISZERO PUSH2 0x945 JUMPI PUSH2 0x944 PUSH2 0x874 JUMP JUMPDEST JUMPDEST PUSH0 PUSH2 0x952 DUP5 DUP3 DUP6 ADD PUSH2 0x91C JUMP JUMPDEST SWAP2 POP POP SWAP3 SWAP2 POP POP JUMP JUMPDEST PUSH2 0x964 DUP2 PUSH2 0x878 JUMP JUMPDEST DUP3 MSTORE POP POP JUMP JUMPDEST PUSH0 PUSH1 0x20 DUP3 ADD SWAP1 POP PUSH2 0x97D PUSH0 DUP4 ADD DUP5 PUSH2 0x95B JUMP JUMPDEST SWAP3 SWAP2 POP POP JUMP JUMPDEST PUSH0 DUP3 DUP3 MSTORE PUSH1 0x20 DUP3 ADD SWAP1 POP SWAP3 SWAP2 POP POP JUMP JUMPDEST PUSH32 0x496E73756666696369656E742062616C616E6365000000000000000000000000 PUSH0 DUP3 ADD MSTORE POP JUMP JUMPDEST PUSH0 PUSH2 0x9C7 PUSH1 0x14 DUP4 PUSH2 0x983 JUMP JUMPDEST SWAP2 POP PUSH2 0x9D2 DUP3 PUSH2 0x993 JUMP JUMPDEST PUSH1 0x20 DUP3 ADD SWAP1 POP SWAP2 SWAP1 POP JUMP JUMPDEST PUSH0 PUSH1 0x20 DUP3 ADD SWAP1 POP DUP2 DUP2 SUB PUSH0 DUP4 ADD MSTORE PUSH2 0x9F4 DUP2 PUSH2 0x9BB JUMP JUMPDEST SWAP1 POP SWAP2 SWAP1 POP JUMP JUMPDEST PUSH32 0x4E487B7100000000000000000000000000000000000000000000000000000000 PUSH0 MSTORE PUSH1 0x11 PUSH1 0x4 MSTORE PUSH1 0x24 PUSH0 REVERT JUMPDEST PUSH0 PUSH2 0xA32 DUP3 PUSH2 0x878 JUMP JUMPDEST SWAP2 POP PUSH2 0xA3D DUP4 PUSH2 0x878 JUMP JUMPDEST SWAP3 POP DUP3 DUP3 SUB SWAP1 POP DUP2 DUP2 GT ISZERO PUSH2 0xA55 JUMPI PUSH2 0xA54 PUSH2 0x9FB JUMP JUMPDEST JUMPDEST SWAP3 SWAP2 POP POP JUMP JUMPDEST PUSH32 0x4E6F206C6F616E20746F20726570617900000000000000000000000000000000 PUSH0 DUP3 ADD MSTORE POP JUMP JUMPDEST PUSH0 PUSH2 0xA8F PUSH1 0x10 DUP4 PUSH2 0x983 JUMP JUMPDEST SWAP2 POP PUSH2 0xA9A DUP3 PUSH2 0xA5B JUMP JUMPDEST PUSH1 0x20 DUP3 ADD SWAP1 POP SWAP2 SWAP1 POP JUMP JUMPDEST PUSH0 PUSH1 0x20 DUP3 ADD SWAP1 POP DUP2 DUP2 SUB PUSH0 DUP4 ADD MSTORE PUSH2 0xABC DUP2 PUSH2 0xA83 JUMP JUMPDEST SWAP1 POP SWAP2 SWAP1 POP JUMP JUMPDEST PUSH0 PUSH2 0xACD DUP3 PUSH2 0x878 JUMP JUMPDEST SWAP2 POP PUSH2 0xAD8 DUP4 PUSH2 0x878 JUMP JUMPDEST SWAP3 POP DUP3 DUP3 MUL PUSH2 0xAE6 DUP2 PUSH2 0x878 JUMP JUMPDEST SWAP2 POP DUP3 DUP3 DIV DUP5 EQ DUP4 ISZERO OR PUSH2 0xAFD JUMPI PUSH2 0xAFC PUSH2 0x9FB JUMP JUMPDEST JUMPDEST POP SWAP3 SWAP2 POP POP JUMP JUMPDEST PUSH32 0x4E487B7100000000000000000000000000000000000000000000000000000000 PUSH0 MSTORE PUSH1 0x12 PUSH1 0x4 MSTORE PUSH1 0x24 PUSH0 REVERT JUMPDEST PUSH0 PUSH2 0xB3B DUP3 PUSH2 0x878 JUMP JUMPDEST SWAP2 POP PUSH2 0xB46 DUP4 PUSH2 0x878 JUMP JUMPDEST SWAP3 POP DUP3 PUSH2 0xB56 JUMPI PUSH2 0xB55 PUSH2 0xB04 JUMP JUMPDEST JUMPDEST DUP3 DUP3 DIV SWAP1 POP SWAP3 SWAP2 POP POP JUMP JUMPDEST PUSH0 PUSH2 0xB6B DUP3 PUSH2 0x878 JUMP JUMPDEST SWAP2 POP PUSH2 0xB76 DUP4 PUSH2 0x878 JUMP JUMPDEST SWAP3 POP DUP3 DUP3 ADD SWAP1 POP DUP1 DUP3 GT ISZERO PUSH2 0xB8E JUMPI PUSH2 0xB8D PUSH2 0x9FB JUMP JUMPDEST JUMPDEST SWAP3 SWAP2 POP POP JUMP JUMPDEST PUSH32 0x496E73756666696369656E742072657061796D656E7420616D6F756E74000000 PUSH0 DUP3 ADD MSTORE POP JUMP JUMPDEST PUSH0 PUSH2 0xBC8 PUSH1 0x1D DUP4 PUSH2 0x983 JUMP JUMPDEST SWAP2 POP PUSH2 0xBD3 DUP3 PUSH2 0xB94 JUMP JUMPDEST PUSH1 0x20 DUP3 ADD SWAP1 POP SWAP2 SWAP1 POP JUMP JUMPDEST PUSH0 PUSH1 0x20 DUP3 ADD SWAP1 POP DUP2 DUP2 SUB PUSH0 DUP4 ADD MSTORE PUSH2 0xBF5 DUP2 PUSH2 0xBBC JUMP JUMPDEST SWAP1 POP SWAP2 SWAP1 POP JUMP JUMPDEST PUSH32 0x496E73756666696369656E74206C697175696469747900000000000000000000 PUSH0 DUP3 ADD MSTORE POP JUMP JUMPDEST PUSH0 PUSH2 0xC30 PUSH1 0x16 DUP4 PUSH2 0x983 JUMP JUMPDEST SWAP2 POP PUSH2 0xC3B DUP3 PUSH2 0xBFC JUMP JUMPDEST PUSH1 0x20 DUP3 ADD SWAP1 POP SWAP2 SWAP1 POP JUMP JUMPDEST PUSH0 PUSH1 0x20 DUP3 ADD SWAP1 POP DUP2 DUP2 SUB PUSH0 DUP4 ADD MSTORE PUSH2 0xC5D DUP2 PUSH2 0xC24 JUMP JUMPDEST SWAP1 POP SWAP2 SWAP1 POP JUMP JUMPDEST PUSH32 0x4465706F73697420616D6F756E74206D75737420626520677265617465722074 PUSH0 DUP3 ADD MSTORE PUSH32 0x68616E207A65726F000000000000000000000000000000000000000000000000 PUSH1 0x20 DUP3 ADD MSTORE POP JUMP JUMPDEST PUSH0 PUSH2 0xCBE PUSH1 0x28 DUP4 PUSH2 0x983 JUMP JUMPDEST SWAP2 POP PUSH2 0xCC9 DUP3 PUSH2 0xC64 JUMP JUMPDEST PUSH1 0x40 DUP3 ADD SWAP1 POP SWAP2 SWAP1 POP JUMP JUMPDEST PUSH0 PUSH1 0x20 DUP3 ADD SWAP1 POP DUP2 DUP2 SUB PUSH0 DUP4 ADD MSTORE PUSH2 0xCEB DUP2 PUSH2 0xCB2 JUMP JUMPDEST SWAP1 POP SWAP2 SWAP1 POP JUMP INVALID LOG2 PUSH5 0x6970667358 0x22 SLT KECCAK256 PUSH31 0xE2DC2E2F08F7E0D3FE3901AD7E4106EF5B8CD4D1D40A94D28BAB795B0592BB PUSH5 0x736F6C6343 STOP ADDMOD BYTE STOP CALLER "
				},
				"gasEstimates": {
					"creation": {
						"codeDepositCost": "673600",
						"executionCost": "infinite",
						"totalCost": "infinite"
					},
					"external": {
						"borrow(uint256)": "infinite",
						"calculateInterest(uint256)": "infinite",
						"deposit()": "infinite",
						"deposits(address)": "2889",
						"interestRate()": "2492",
						"loans(address)": "2847",
						"repay()": "infinite",
						"totalDeposits()": "2514",
						"totalLoans()": "2469",
						"withdraw(uint256)": "infinite"
					}
				},
				"methodIdentifiers": {
					"borrow(uint256)": "c5ebeaec",
					"calculateInterest(uint256)": "a57475e0",
					"deposit()": "d0e30db0",
					"deposits(address)": "fc7e286d",
					"interestRate()": "7c3a00fd",
					"loans(address)": "73b4086b",
					"repay()": "402d8883",
					"totalDeposits()": "7d882097",
					"totalLoans()": "cc952b57",
					"withdraw(uint256)": "2e1a7d4d"
				}
			},
			"storageLayout": {
				"storage": [
					{
						"astId": 5,
						"contract": "contracts/DeFiLending.sol:DeFiLending",
						"label": "deposits",
						"offset": 0,
						"slot": "0",
						"type": "t_mapping(t_address,t_uint256)"
					},
					{
						"astId": 9,
						"contract": "contracts/DeFiLending.sol:DeFiLending",
						"label": "loans",
						"offset": 0,
						"slot": "1",
						"type": "t_mapping(t_address,t_uint256)"
					},
					{
						"astId": 11,
						"contract": "contracts/DeFiLending.sol:DeFiLending",
						"label": "totalDeposits",
						"offset": 0,
						"slot": "2",
						"type": "t_uint256"
					},
					{
						"astId": 13,
						"contract": "contracts/DeFiLending.sol:DeFiLending",
						"label": "totalLoans",
						"offset": 0,
						"slot": "3",
						"type": "t_uint256"
					},
					{
						"astId": 15,
						"contract": "contracts/DeFiLending.sol:DeFiLending",
						"label": "interestRate",
						"offset": 0,
						"slot": "4",
						"type": "t_uint256"
					}
				],
				"types": {
					"t_address": {
						"encoding": "inplace",
						"label": "address",
						"numberOfBytes": "20"
					},
					"t_mapping(t_address,t_uint256)": {
						"encoding": "mapping",
						"key": "t_address",
						"label": "mapping(address => uint256)",
						"numberOfBytes": "32",
						"value": "t_uint256"
					},
					"t_uint256": {
						"encoding": "inplace",
						"label": "uint256",
						"numberOfBytes": "32"
					}
				}
			},
			"userdoc": {
				"kind": "user",
				"methods": {},
				"version": 1
			}
		}
	}
}